:100000000C944A030C9482030C9482030C94820394
:100010000C9482030C9482030C9482030C9482034C
:100020000C9482030C9482030C948A270C94462728
:100030000C9487280C9482030C9482030C94820302
:100040000C9482030C9482030C9482030C9482031C
:100050000C9482030C9463280C9482030C94820306
:100060000C9482030C9482030C9482030C948203FC
:100070000C9482030C9482030C9482030C948203EC
:100080000C9482030C9482030C9482030C948203DC
:100090000C9482030C9482030C9482030C948203CC
:1000A0000C9482030C9482030C94820305010902D0
:1000B000A10185020901A1000509190129081500FE
:1000C0002501950875018102050109300931158165
:1000D000257F95027508810609381581257F9501D0
:1000E00075088106050C0A38021581257F95017572
:1000F000088106C0C005010980A101850319012AF4
:10010000B700150126B700950175108100C0050CD8
:100110000901A101850419012AA002150126A002E6
:10012000950175108100C005010906A1018506052C
:100130000719E029E71500250195087501810205D9
:1001400007190029EF1500250195F07501810205B9
:10015000081901290595057501910295017503910D
:1001600001C00660FF0961A1010962150026FF00B8
:100170009520750881020963150026FF00952075FA
:10018000089102C005010906A101050719E029E748
:1001900015002501950875018102950175088101F9
:1001A0000507190029FF150026FF0095067508812F
:1001B000000508190129059505750191029501753C
:1001C000039101C0000000000000000000000000DA
:1001D000000000000000000000000000000000001F
:1001E00000000000000000007E0F00D4FFFFFFC7EA
:1001F0000000007800000000000000002A2B28000A
:1002000000000000000000000000000000000029C5
:10021000000000002C1E3420212224342627252E05
:10022000362D3738271E1F2021222324252633333D
:10023000362E37381F0405060708090A0B0C0D0E69
:100240000F101112131415161718191A1B1C1D2F35
:100250003130232D350405060708090A0B0C0D0E55
:100260000F101112131415161718191A1B1C1D2F15
:100270003130354C696436383A69646F62616F2099
:100280002876302E31362E392D3136352D676334B0
:10029000633637662D6469727479290000010101A3
:1002A0000101010101010202020202020202020333
:1002B0000303030303030304040404040404050503
:1002C00005050506060606060707070707080808C6
:1002D00008090909090A0A0A0B0B0B0C0C0C0D0D75
:1002E0000D0E0E0E0F0F0F1010111111121213130D
:1002F0001414151516161717181819191A1A1B1B86
:100300001C1D1D1E1E1F20202122222324242526E1
:1003100026272829292A2B2C2D2D2E2F3031323219
:10032000333435363738393A3B3C3D3E3F40414225
:10033000434445464748494A4C4D4E4F505153540B
:10034000555658595A5B5D5E5F61626465666869BF
:100350006B6C6D6F7072737577787A7B7D7E80823F
:10036000838587888A8C8E8F91939596989A9C9E88
:10037000A0A2A3A5A7A9ABADAFB1B3B5B7BABCBE98
:10038000C0C2C4C6C9CBCDCFD1D4D6D8DBDDDFE265
:10039000E4E7E9EBEEF0F3F5F8FAFDFF29001E00C3
:1003A0001F00200021002200230024002500260039
:1003B00027002D002E002A004A002B0014001A00EE
:1003C0000800150017001C0018000C001200130094
:1003D0002F00300031004D003941040016000700A5
:1003E00009000A000B000D000E000F00330034005E
:1003F000000028004B00E10000001D001B0006006B
:100400001900050011001000360037003800E50023
:1004100052004E00E000E300E20000000000000097
:100420002C0000000000E6000151E40050005100E3
:100430004F0001003A003B003C003D003E003F0001
:10044000400041004200430044004500010001001B
:100450000100C25C5200C35CC55CC65CC75CC85C82
:10046000C95CCA5C01000100010001000100390003
:10047000500051004F000100010001000100010087
:1004800049004A004B00000001000100010000008B
:10049000005CCB5CCC5C895FAA00A800A9004C0082
:1004A0004D004E00010001000100010001000100AB
:1004B0000000000000000100000000000100010039
:1004C0000100010001000100010001000100010024
:1004D0000100010001000100010001000100010014
:1004E0000100010001000100010001000100010004
:1004F00001000100010001000100010001000100F4
:1005000001000100010001000100010001000100E3
:1005100001000100010001000100010000000100D4
:1005200001000100000001000100010001000100C4
:1005300001000100010001000100010001000100B3
:1005400001000100010000000000000001000000A7
:100550000000010001000100010001000100010094
:100560000100010001000100010001000100010083
:100570000100010001000100010001000100010073
:100580000100010001000100010001000100010063
:100590000100010001000100010001000100010053
:1005A0000100010001000100010001000100010043
:1005B0000100000001000100010000000100010035
:1005C0000100010001000100010001000100010023
:1005D0000100010001000100010001000000000015
:1005E0000000010000000000010001000100010006
:1005F0000100010009025B00030100A0FA090400E8
:10060000000103010100092111010001224000073E
:10061000058103080001090401000203000000092C
:100620002111010001222200070582032000010799
:100630000503032000010904020001030000000972
:10064000211101000122B6000705840320000112D8
:100650000100020000000864696800000101020056
:10066000011C0344006900730063006F00720064A2
:100670000020004E006900740072006F0000000E40
:1006800003490044004F00420041004F00000004B5
:100690000309040011241FBECFEFDAE0DEBFCDBF97
:1006A00004B603FE18C080910D0590910E05A0912F
:1006B0000F05B09110058730904BA740B04B59F40F
:1006C00010920D0510920E0510920F051092100554
:1006D000E0E0F8E3099525E0ACEAB2E001C01D9244
:1006E000AD30B207E1F712E0A0E0B1E0E8EBFEE5E3
:1006F00002C005900D92AC3AB107D9F70E94AE281E
:100700000C94092F0C94000090910605937061F0F1
:1007100081110BC094609093060510921601809190
:1007200005058160809305050895883210F09C6965
:10073000F2CF880F880F982BEECF9091060593701B
:1007400071F08093070560930805453B08F044EB82
:100750004093090580910505816080930505089502
:10076000E8EDF0E080818E7F80831092E2001092AD
:10077000DA001092E100A0EEB0E08C9181608C93E1
:1007800080818F77808319BCA7EDB0E08C918E7F3C
:100790008C9380818F7E80831092A604089520918F
:1007A000E4003091E50095E6A9012091EC00822F4C
:1007B000817020FF06C08091E80080FF06C080E0C5
:1007C00008952091E80022FD1AC08091CB0488236F
:1007D00089F0853089F08091EB0085FD0FC0209174
:1007E000E4003091E50042175307F9F29150E1F629
:1007F00084E0089582E0089583E0089581E00895FB
:10080000EF92FF920F931F93CF937C018B010E9475
:10081000CF03C82F811117C08091E80085FD0BC060
:100820008091E8008E778093E8000E94CF038823B0
:1008300099F3C82F08C0F70181917F018093F100DF
:100840000150110949F78C2FCF911F910F91FF9003
:10085000EF9008958091CD0487FF13C08091E80048
:1008600082FF06C08091E8008B778093E80004C087
:100870008091CB048111F2CF08958091CB0488231D
:10088000D9F38091E80080FFF8CF8091E8008E775F
:10089000ECCF982F9093E900242F762F50E0891702
:1008A00031F07091EC002091ED005091F00021FDAD
:1008B00007C09F5F973071F78093E90081E008954A
:1008C0003091EB003E7F3093EB003091ED003D7FA7
:1008D0003093ED003091EB0031603093EB0070937A
:1008E000EC002093ED005093F0002091EE0027FDE6
:1008F000E0CF80E00895CF92DF92EF92FF920F93C6
:100900001F93CF93DF93C8EDD0E088818F7E8883DB
:10091000E7EDF0E080818160808384E082BF81E048
:100920008093A60488818E7F888302EE10E0F80110
:1009300010821092DA0081EEC82ED12CF6011082BE
:1009400088818F77888388818068888388818F7D7C
:10095000888319BC1092CB041092CC041092CA0464
:100960001092C90490EEE92EF12CF70180818B7F63
:10097000808388818160888342E060E080E00E941B
:100980004904F60180818E7F8083F8018081816037
:100990008083808188608083F70180818E7F80835F
:1009A000888180618883DF91CF911F910F91FF90A3
:1009B000EF90DF90CF900895FC018091D304909147
:1009C000D40486179707A0F06115710529F490915A
:1009D000E8009E779093E80090E06115710551F46E
:1009E000911108C08091E80082FF34C080E0089532
:1009F000BC01F2CF8091CB048823C1F18530C1F1D5
:100A00008091E80083FD30C08091E80082FDEACF4C
:100A10008091E80080FFE1CF8091F3002091F20007
:100A2000382F6115710519F02830310558F091E023
:100A30002830310509F090E02091E8002E772093CE
:100A4000E800CBCF81918093F100615071092F5F55
:100A50003F4FE7CF8091CB04882341F0853041F0B0
:100A60008091E80083FFBECF81E0089582E0089581
:100A700083E0089508958091A80408959C014FB7DC
:100A8000F89480919D0490919E04A0919F04B09150
:100A9000A0044FBF821B930B08952FB7F894809149
:100AA0009D0490919E04A0919F04B091A0042FBF3B
:100AB0000895209112012223C9F02091A10427FF5B
:100AC00015C0E62FE695E695E695EE31D8F4E80FE9
:100AD000F92FF11D677021E030E001C0220F6A9507
:100AE000EAF720958281282322830895FC0132961B
:100AF00008962191621303C0DF0111971C92E81739
:100B0000F907B9F70895209112012223C1F020912D
:100B1000A10427FF14C0E62FE695E695E695EE3191
:100B2000F8F4E80FF92FF11D677021E030E001C003
:100B3000220F6A95EAF78281822B82830895FC0155
:100B400032962FEF30E04191641751F02F3F19F4A6
:100B5000411101C0232F3F5F3630A9F72F3F09F421
:100B60000895820F911D27FD9A95FC0162830895D7
:100B700020919A0430919B042817390771F09093C3
:100B80009B0480939A04E0919804F0919904309723
:100B900021F00084F185E02D0994089520919604B8
:100BA000309197042817390771F090939704809338
:100BB0009604E0919804F0919904309721F0068012
:100BC000F781E02D09940895E0919804F09199043B
:100BD000309721F00190F081E02D099480E0089594
:100BE000FA01811101C0FB010994ECEAF3E0818371
:100BF00060834283339694E0E639F907C1F708959C
:100C0000FC01EE0FFF1FE80FF91FE455FC4F618355
:100C1000408322830895E6E0F5E0248130E1231B40
:100C200008F420E024838091050581608093050508
:100C30000895E6E0F5E0248130E1230F08F42FEF7A
:100C40002483809105058160809305050895E6E081
:100C5000F5E0438120E1421B08F440E0818162819C
:100C600090E00C949D03E6E0F5E0438120E1420F23
:100C700008F44FEF8181628190E00C949D03E6E0DF
:100C8000F5E0628120E1621B08F460E0818143812C
:100C900090E00C949D03E6E0F5E0628120E1620FB4
:100CA00008F46FEF8181438190E00C949D03E6E0AE
:100CB000F5E08181438162818850990B0C949D03FA
:100CC000E6E0F5E0818190E04381628108960C9432
:100CD0009D038091060586958695815009F487E2EB
:100CE0000C94840380910605869586958F5F8832E3
:100CF00008F081E00C948403EF92FF920F93970128
:100D0000201B31092F3F310519F010F02FEF30E093
:100D10002095382F320F08F43FEF832F0F91FF906B
:100D2000EF900895EF92FF920F939701201B3109E6
:100D30002F3F310519F010F02FEF30E0322F3095B2
:100D4000482F430F08F44FEF842F620F0F91FF904D
:100D5000EF900895EF92FF920F93972F093438F494
:100D6000B701601B71096F3F710519F010F06FEF4B
:100D700070E0485F5F4F4131510540F0A901485F85
:100D80005F4F4131510510F06FEF70E06095482FD3
:100D9000460F08F44FEF842F37FF02C02D5F3F4FFF
:100DA000359527953595279560910705620F792F21
:100DB0000F91FF90EF900895EF92FF920F931F9382
:100DC0000E0D1F2D111DF90137FF03C0F195E1959F
:100DD000F10924E0EE0FFF1F2A95E1F7EF3FF1053F
:100DE00019F014F0EFEFF0E09A0157FF03C03195CE
:100DF0002195310994E0220F331F9A95E1F72E17C0
:100E00003F070CF4F901E00FF11FEF3FF10519F076
:100E100010F0EFEFF0E0E095282F3E2F230F08F4BD
:100E20002FEF822F1F910F91FF90EF900895EF9277
:100E3000FF920F93970195E0099F200D311D11241A
:100E40002F3F310519F010F02FEF30E02095382FAB
:100E5000320F08F43FEF832F0F91FF90EF9008952A
:100E600022E8241B08F420E0620F08954095282F03
:100E7000429F412D1124842F0895E42FF0E0EE0FBE
:100E8000FF1FEF53FE4F9081921B97FD9195292FE5
:100E900038E1239F212D1124620F08950F931F9392
:100EA00010E0F801EE0FFF1FEF53FE4F90819057B7
:100EB00097FD9195000F111FF801EE53FE4F008131
:100EC0000052110B2003F001219FF00D112408E3C3
:100ED00010E0091B110997FD139540039001419FF4
:100EE000300D1124E20FF31F9F01220F331F2E0F2D
:100EF0003F1F37FF02C021583F4F220F232F221FD1
:100F0000330B620F1F910F9108950F931F93522F70
:100F100010E0F801EE0FFF1FEE53FE4FA081A0522C
:100F2000BB0B9D015203F001539FF00D1124000FE4
:100F3000111FD801AF53BE4F0C910057110B400346
:100F40009001419F300D11242E0F3F1F37FF02C02B
:100F5000215C3F4F96E0359527959A95E1F7620F12
:100F60001F910F9108950F931F93522F10E0F801D6
:100F7000EE0FFF1FEE53FE4FA081A052BB0B9D0151
:100F80005203F001539FF00D1124000F111FD801DF
:100F9000AF53BE4F0C910057110B40039001419F7E
:100FA000300D11242E0F3F1F37FF02C021583F4F35
:100FB000220F232F221F330B620F1F910F910895D1
:100FC000EF920F93972F23E0029FB00111247595A4
:100FD00067956E0D792F0F91EF900895322F50E0A5
:100FE000FA01EE0FFF1FEE53FE4F9081905297FDD6
:100FF0009195440F551FFA01EF53FE4F2081231B9B
:10100000330B290F311D97FD3A95620F0895E42F98
:10101000F0E0EE0FFF1FEE53FE4F6081621B08955C
:10102000E42FF0E0EE0FFF1FEF53FE4F6081621BD5
:101030000895622F0895E42FF0E0EE0FFF1FEF53A5
:10104000FE4F408134EE439F412D1124E82FF0E004
:1010500050E0445E5F4FDA01A21BB1099D01B7FF6A
:1010600003C031952195310993E0220F331F9A95E2
:10107000E1F7AF01421B530B9A0157FD20E0582FB7
:10108000259F212D1124822F0895E42FF0E0EE0FEB
:10109000FF1FEF53FE4F408134EE439F412D11243B
:1010A000E72FF0E050E0445E5F4FDA01A21BB10988
:1010B0009D01B7FF03C031952195310993E0220FBF
:1010C000331F9A95E1F7AF01421B530B9A0157FD6D
:1010D00020E0279F212D1124722F08950C94F505EF
:1010E0000C940006FC019B01009729F480E077FF37
:1010F0002BC080E80895AC0197FF04C04427552712
:10110000481B590BB901640F751F37FD10C0241B14
:10111000350BC901A5E0880F991FAA95E1F70E9438
:10112000BB2D80E2861BF7FF0FC081950895CB0190
:1011300065E0880F991F6A95E1F7BA01621B730B8E
:101140000E94BB2D80E6EECF0895EF920F93CF93D0
:10115000DF93D72FC82FC9010E19BA010E94720858
:10116000602F681B7D2F8C2FDF91CF910F91EF9017
:1011700008950F93CF93DF93D72FC82FC901BA01DA
:101180000E947208682F600F7D2F8C2FDF91CF9106
:101190000F910895EF920F931F93CF93DF93D62F64
:1011A000C72F182FC9010E19010FBA010E9472082A
:1011B000081B202F219F212D1124822F6D2F7C2F82
:1011C000DF91CF911F910F91EF900895EF920F93C0
:1011D0001F93CF93DF93D62F172FC82FC9010E1956
:1011E000070FBA010E947208702F781B719F712D32
:1011F00011246D2F8C2FDF91CF911F910F91EF90C4
:1012000008950F931F93CF93DF93D62FC72F182FD7
:10121000C901212F201B022FBA010E947208982FAA
:10122000990F990F891B800F282F219F212D1124A1
:10123000822F6D2F7C2FDF91CF911F910F910895F9
:101240000F931F93CF93DF93D62F172FC82FC9016A
:10125000272F201B022FBA010E947208982F990F86
:10126000990F782F791B700F719F712D11246D2F9D
:101270008C2FDF91CF911F910F910895E82F86FD5C
:10128000E0952E2F2F7086FD2F5FE695E695E6956B
:10129000E670F0E0E15AFE4F9181929F902D212D52
:1012A000112492959F702295207F922B2081920F7E
:1012B00087FD919580E8890F08950F931F93CF9331
:1012C000DF938B01D82FC42F822F0E943E09EC2F71
:1012D000F0E0EE0FFF1FEF53FE4F90819058890F03
:1012E00087FD8195880F682F2CE0629F612D112466
:1012F000600F712F8D2FDF91CF911F910F91089566
:10130000AC018230910508F408959FEF413E8EE1D3
:10131000580740F49A0195E0369527959A95E1F79C
:1013200098E0920F61E0E62FE90FFF27FF1F9F0172
:1013300035952795822F229FF001239FF00DF00D08
:1013400011244E175F0738F49FEF920F961758F746
:101350008FEF860F08952F3FE9F361E0620FF6CF1C
:101360000F93CF93DF93D72FC82F47FD419588E385
:1013700090E0841B910947FD9395889FB001899F58
:10138000700D700D1124229FC001239F900D900DB0
:101390001124860F971F0E948009982F990F890F9B
:1013A000682F600F7D2F8C2FDF91CF910F910895C3
:1013B00030E020E0869F212D969F200D311D1124C5
:1013C000C9010895AF92BF92CF92DF92FF920F931F
:1013D0001F93CF93DF93362F472FE82FF0E0E4568B
:1013E000FD4F71110FC0E4918E2F2E2F6E2F722F93
:1013F000DF91CF911F910F91FF90DF90CF90BF9021
:10140000AF900895C72FD0E02491F22E022F10E064
:1014100056E0659FC0011124EFEFF0E0BF010E948C
:10142000A72D832F90E0880F991F35E5369FD001B7
:10143000379FB00D11248A1B9B0B982F990F980F83
:101440006F01CC1ADD0AC09ED001C19EB00DD09EA6
:10145000B00D11248B2F499FA0011124452F552732
:101460006F01C41AD50AC09EA001C19E500DD09E26
:10147000500D11245F01A91AB108AC9E6001AD9E08
:10148000D00CBC9ED00C1124CD2CDD24EC19FD0910
:10149000E09FE001E19FD00DF09FD00D1124ED2FD2
:1014A00062307105A1F050F46115710509F49ECF09
:1014B0006130710581F0EB2F852F98CF6430710575
:1014C00069F080F06630710509F490CFF4CFE22F17
:1014D0002B2F8D2F8BCFE22F252F88CFEB2F822F15
:1014E0002D2F84CF2B2F8F2DE52F80CF2F923F9242
:1014F0005F926F927F928F929F92AF92BF92CF92A4
:10150000DF92EF92FF920F931F93CF93DF93CDB7AC
:10151000DEB72A970FB6F894DEBF0FBECDBF8B8320
:101520007E836D83209113012295207F2F83205F7E
:1015300029832A832F3410F03EE43A838091D90422
:101540008C83FF81EF2FF0E0FA87E987CF01880FC6
:10155000991F9C012F533E4F69013B81832F90E0DF
:10156000FC013196F887EF838A8199859817E8F016
:1015700081E0E981EE3408F080E02A960FB6F89415
:10158000DEBF0FBECDBFDF91CF911F910F91FF90B6
:10159000EF90DF90CF90BF90AF909F908F907F9013
:1015A0006F905F903F902F900895E985FA85E35AF8
:1015B000FD4F8081909114018923F1F0209007055F
:1015C000309008052F81388527523B4F39015B80C9
:1015D00010E0FC815F16D0F020910905129F112DBB
:1015E0001124B101812F0E94E209462F282F672F75
:1015F00089859A850E94700829853A852F5F3F4F1B
:101600003A87298732E0C30ED11CAECFF301819116
:101610003F01F601A080A81ABB088180F3018781F1
:10162000881A9908AA9C9001AB9C300D300D1124AA
:10163000889CC001899C900D900D1124820F931FEE
:101640000E948009082F60910A0521E0620F08F4CA
:101650006FEFF301EE0FFF1FE95DF4408589968976
:101660000E94D8097C019401A501B101812FED816F
:10167000FE8109951B015394182FABCFCF92DF92B7
:10168000EF92FF920F931F93CF93DF938C01C09142
:101690001301C295C07F20E1D22EDC0ECD2C2EE4AA
:1016A0002D1510F49EE4C92E20910A0531E0230F78
:1016B00008F42FEF30E050E040E06FEF7FEF80E084
:1016C00090E00E94A62E7901D0E02C2FCC1570F06E
:1016D00081E0FDE4FD1508F480E0DF91CF911F91DA
:1016E0000F91FF90EF90DF90CF900895FE01E35AA5
:1016F000FD4F808190911401892311F14091D9040B
:101700004150042E000C550B47FF1CC0C7016091CF
:101710000A0521E0620F08F46FEF0E94D809AC01BE
:10172000609107057091080580910905F8010995F8
:101730000E94E209462F282F672FCE010E947008D1
:101740002196C3CFFA01E752FB4F818982130AC069
:10175000FA01EE0FFF1FE752FB4F818D928D8E1520
:101760009F05A8F241505109CFCFDF92EF92FF922F
:101770000F931F93CF93DF937C01C0911301C29508
:10178000C07F10E11C0F012F1F3408F00EE46091A0
:101790000A056695669521E0620F08F46FEF809167
:1017A000D5049091D6040E94D809D82ED0E0C01755
:1017B00060F081E01E3408F080E0DF91CF911F914E
:1017C0000F91FF90EF90DF900895FE01E35AFD4FD7
:1017D000808190911401892391F0609107057091A7
:1017E0000805809109052D2D4C2FF70109950E94C0
:1017F000E209462F282F672FCE010E9470082196FC
:10180000D6CF9F92AF92BF92CF92DF92EF92FF928C
:101810000F931F93CF93DF936C01C0911301C29577
:10182000C07F10E11C0FB12E1F3410F03EE4B32E28
:1018300060910A05669566958091D5049091D604CD
:101840000E94D809F82E80E48F0D0E943E0990E88E
:10185000A92EA80E8F2D0E943E0920E8922E980EE8
:10186000D0E0CB1580F081E01E3408F080E0DF91FD
:10187000CF911F910F91FF90EF90DF90CF90BF908D
:10188000AF909F900895FE01E35AFD4F80819091A3
:1018900014018923A1F060910705709108058091DA
:1018A0000905EF2C0C2F292D4A2DF60109950E94D0
:1018B000E209462F282F672FCE010E94700821963B
:1018C000D0CF7F928F929F92AF92BF92CF92DF92B2
:1018D000EF92FF920F931F93CF93DF935C01C09120
:1018E0001301C295C07F10E11C0FF12E1F3410F0C0
:1018F0003EE4F32E60910A0566958091D50490919F
:10190000D6040E94D809782ED0E0CF1590F081E05F
:101910001E3408F080E0DF91CF911F910F91FF906E
:10192000EF90DF90CF90BF90AF909F908F907F907F
:101930000895FE01E35AFD4F80819091140189239F
:10194000C9F1CE01880F991F8A589E4FFC01E55BB3
:10195000FF4F2081422F4057550B6A01845B9F4FF8
:10196000FC018081282F2052330B4901449F9001B4
:10197000459F300D300D1124889CC001899C900D2D
:10198000900D1124820F931F0E948009082F6091EF
:1019900007057091080580910905E72C9401A601BF
:1019A000F50109950E94E209462F282F672FCE01E5
:1019B0000E9470082196A9CFCF92DF92EF92FF92FA
:1019C0000F931F93CF93DF937C01C0911301C295B6
:1019D000C07F10E11C0FD12E1F3410F03EE4D32E37
:1019E00060910A0566958091D5049091D6040E9475
:1019F000D809C82ED0E0CD1568F081E01E3408F07B
:101A000080E0DF91CF911F910F91FF90EF90DF90D9
:101A1000CF900895FE01E35AFD4F8081909114010B
:101A2000892311F1CE01880F991F8A589E4FFC011E
:101A3000E45BFF4F20812052330B855B9F4FFC01FD
:101A400040814057550B60910705709108058091C2
:101A500009050C2DF70109950E94E209462F282F50
:101A6000672FCE010E9470082196C5CF0E944D05B8
:101A70009C019091760380917703982B21F030930D
:101A80007303209372039091780380917903982BCC
:101A900021F03093710320937003E0919804F0914A
:101AA0009904309749F082E0809374030480F581B3
:101AB000E02D84E793E00994089540917603803FF8
:101AC00059F48091770387FF0DC01092770341117D
:101AD0000BC010926E0308C0813F81F480917703A0
:101AE00018169CF3442381F0809178039091790338
:101AF000892B09F05AC010926D030895823F49F472
:101B000047FFF0CF10927603809177038111ECCFDD
:101B1000E0CF833F19F41416ACF3E4CF909178032F
:101B2000893F29F41916F4F610927803DBCF8A3F27
:101B300019F497FFD7CFF8CF909179038B3F29F411
:101B400097FFD0CF10927903CDCF8C3F19F419169F
:101B5000CCF3C8CF9CE0980F953090F4845F990B3C
:101B600021E030E0B90102C0660F771F8A95E2F7E5
:101B7000CB01809590917503892380937503B2CF33
:101B80008D3F31F480916F038E7F80936F03AACFD6
:101B90008E3F21F480916F038D7FF7CF8F3F09F047
:101BA000A1CF80916F038B7FF0CF089580916F0359
:101BB00080FD16C081FD16C082FD16C080916D03A8
:101BC0008823A1F0883280F428E0829FC00111248C
:101BD00068E270E00E94BB2D862F672B39F00895D4
:101BE00082E0089584E0089588E0089581E00895F2
:101BF00080916F0380FD14C081FD14C082FD16C06A
:101C000080916E03882381F08E3180F420E5829FDD
:101C1000C00111246EE170E00E94BB2D862F089553
:101C200084E1089588E2089588E0089580E50895A4
:101C3000803F31F40E94F80D8195809377030895D9
:101C4000813F19F40E94F80DF8CF823F31F40E94D1
:101C5000F80D8195809376030895833F19F40E94CF
:101C6000F80DF8CF893F29F40E94D60D80937803B0
:101C700008958A3F21F40E94D60D8195F7CF8B3FBE
:101C800031F40E94D60D81958093790308958C3F9D
:101C900019F40E94D60DF8CF9CE0980F953070F49F
:101CA000845F990B21E030E001C0220F8A95EAF7AA
:101CB00080917503822B8093750308958D3F31F4D5
:101CC00080916F03816080936F0308958E3F21F4AC
:101CD00080916F038260F7CF8F3FB9F780916F03D8
:101CE0008460F1CF80E00895F894E82FE295EF70DA
:101CF000F0E031A1282F2F7081E090E001C0880F23
:101D00002A95EAF7982F9095932391A392A1892B76
:101D100082A3789408959091A10492FF06C0282F81
:101D200028712830F9F4877F846093FF06C0282F3C
:101D300028712831F1F4877E84612091A20420FF6C
:101D400006C0382F38713830D9F4877F816021FF81
:101D500006C0282F28712831D1F4877E816194FD37
:101D6000877E0895282F24712430F9F68B7F8860B0
:101D7000DCCF282F2471243101F78B7E8861DDCFE1
:101D8000382F3171313019F78E7F8860E0CF282FDE
:101D90002171213121F78E7E8861E1CFCF93DF93CE
:101DA000EC0182389105A9F1D8F58133910509F448
:101DB00096C048F58932910509F48AC08A9709F4DA
:101DC00095C0C11521E5D20708F0BCC0C11530E5AA
:101DD000D30708F014C1C83ED10508F09CC0C03E2E
:101DE000D10560F5C83AD10508F087C0C53AD105DC
:101DF00008F0FDC0C130D10509F12097F9F0C430D9
:101E0000D105E0F440C08533910509F45AC0C99763
:101E1000C1F68091A104837089F0C0EED0E00EC0BD
:101E2000833E910599F170F4803E910501F1823E67
:101E3000910539F68091A10482FD21C0CE01DF9188
:101E4000CF910895863E910561F1873E910571F12C
:101E5000843E910509F0B5CF8091A20481FFEECFB9
:101E60008091A104C7EED0E084FD0DC0E7CF809142
:101E7000A10480FD12C19091A20490FFDFCFC3EEB8
:101E8000D0E084FFDBCFD0E0C0E0D8CF8091A104C8
:101E900082FD06C19091A20490FDBFCF84FFCECFFA
:101EA000F2CF8091A10483FDDDCFC8CF8091A10442
:101EB00083FDF9C09091A20491FFF0CFC4EED0E071
:101EC000BDCF8091A10485FFB9CFC9E2D0E0B6CFE4
:101ED0008091A10485FFB2CFC5E3D0E0AFCF809160
:101EE000A10486FFABCFCAE2D0E0A8CF8091A104C5
:101EF00086FFA4CFC1E3D0E0A1CFCF3BD10518F638
:101F0000C85AD0E0CC0FDD1FC35EDE4F0990D881E8
:101F1000C02DD46493CFC11540E2D40758F4C11545
:101F200081E0D80708F08ACFC03FD10508F4ABCFD5
:101F3000D06584CFC11590E4D90708F4A4CFDF7031
:101F4000D06A7CCFC11525E5D20700F5C11534E56F
:101F5000D30708F08AC0C11543E5D40708F071C063
:101F6000C11582E5D80708F467C0CE0183709927B0
:101F700021E030E002C0220F331F8A95E2F7C695B8
:101F8000C69580E2C89FE001112452C0C11599E5B1
:101F9000D907A8F4C11528E5D20708F06BC0C11510
:101FA00036E5D30708F06FCF8C2F0E948B0EC82F19
:101FB000D0E0DC2FCC27CC27DF71D0623FCFC1151A
:101FC0004AE5D40708F45BC0CE01905681159042D3
:101FD00008F059CF8D2F8F710E948B0E90E0982FB3
:101FE000882788279F719C012C2BE901E6CFC55AD1
:101FF000D0E0C65EDE4FC881D0E0D0641FCFCE01F6
:10200000E4E096958795EA95E1F783702C2F269565
:102010002695237040E2249F90011124382B8C2FA9
:102020008370C1E0D0E002C0CC0FDD1F8A95E2F7DB
:10203000C22BD32BDC6802CFDC2FCC27C16FD06A38
:10204000FDCECE018370992721E030E002C0220F3F
:10205000331F8A95E2F7C695C69590E2C99FE001C5
:102060001124C22BD32BDA68E9CEDC2FCC27C46F26
:10207000D06AE4CEDC2FCC27C06FD06ADFCE8C2FA5
:102080008F700E948B0E34E0D695C7953A95E1F794
:10209000CF709C2FEC01D069D1CEC9E3D0E0CECE79
:1020A000C2EED0E0CBCEC6EED0E0C8CE80914803E1
:1020B00081111092480308958095909147039823C9
:1020C000909347030895809124039091F30298130D
:1020D00001C008958F5F8770FACF2FE0929F800D27
:1020E0001124982F977086958695869523E0829F78
:1020F000F0011124E153FD4F50E040E080E02191D8
:1021000030E0092E02C0369527950A94E2F7217037
:102110003327042E01C0220F0A94EAF7822B4F5F67
:102120005F4F4330510559F708952FE0929F800D7E
:102130001124982F977041E001C0440F9A95EAF757
:1021400086958695869593E0899FF0011124E15349
:10215000FD4F90E080E070E05191DF0111979B010D
:10216000082E02C0369527950A94E2F72170219532
:102170002527242325272C9301968330910561F789
:1021800008958093A3047093A5046093A4048091A0
:10219000CB048430F9F48093E9008FEF9091E8004C
:1021A000815095FD06C095ED9A95F1F700008111DB
:1021B000F5CF8091E80085FF0DC050E040E063E07E
:1021C00070E083EA94E00E9400048091E8008E773A
:1021D0008093E8000895BC0184E00C94C110BC0118
:1021E00083E00C94C1109C0184E08093E9009FEF90
:1021F0008091E800915085FD06C085ED8A95F1F744
:1022000000009111F5CF8091E80085FF0CC050E0EF
:1022100040E066E070E0C9010E9400048091E8009F
:102220008E778093E8000895CF93DF93EC0180913F
:1022300012018823B1F18091A10487FF32C060E2CE
:1022400084E08093E9008FEF9091E800815095FD44
:1022500006C095ED9A95F1F700008111F5CF8091B8
:10226000E80085FF1BC08091120170E050E040E063
:10227000811104C050E040E068E070E0CE010E94AF
:1022800000048091E8008E778093E80080E2FE01F0
:10229000A9EAB4E001900D928A95E1F7DF91CF9120
:1022A000089568E081E0CDCF81E08093E00080E296
:1022B0008093D8001092C9008FE19EE40197F1F756
:1022C00000C0000087E090EBDC0180930D05909347
:1022D0000E05A0930F05B093100588E19CE00FB6A2
:1022E000F894A895809360000FBE90936000FFCF94
:1022F000809A31B33E7F21B321604FB7F8948CEAC6
:1023000093E0FC015191CF0168E021BB000000C0C7
:1023100057FF31BB550F000000C000C000C031BBEB
:1023200000C06A9591F7F4E086399F0751F74FBFD7
:102330008FE594E00197F1F700C000000895CF9376
:10234000DF93CFE7D2E060E0CE010E94822E21969B
:10235000C11584E0D807B9F7DF91CF9108956F9246
:102360007F928F929F92AF92BF92CF92DF92EF9225
:10237000FF920F931F93CF93DF938CE9C82E83E0D6
:10238000D82E9BEDE92EF12CE701C659D109360173
:102390001BC0F50185909490692DC8010E94822E82
:1023A000682DC80101960E94822E82E0A80EB11C01
:1023B0000E5F1F4FC017D10761F78EE1680E711CC9
:1023C0006E96CE15DF0529F08E010E5111095301CD
:1023D000E0CF7E0186E9E80EF11C86E9C80ED11C2B
:1023E00083E3E81683E0F80679F6DF91CF911F9139
:1023F0000F91FF90EF90DF90CF90BF90AF909F90A4
:102400008F907F906F900895CF93C82F6FEF8111B9
:1024100062E283E290E00E94822E6FEFC11162E1DE
:1024200084E290E00E94822E6FEFC11164E185E2A8
:1024300090E0CF910C94822E80E00E94041260E024
:1024400086E290E00E94822E0E94AF110E949F11AE
:1024500081E00C9404120F931F93CF93DF93C42F4A
:10246000D0E0CC0FDD1F2EE1629FC00DD11D1124E5
:1024700036E9839FC00DD11D1124CE0187960E949D
:102480005E2E082F10E0102F0027CE0188960E94A4
:102490005E2E9801282BC901DF91CF911F910F91DA
:1024A0000895462F843038F4753028F46F3018F4CE
:1024B000672F0C942B1290E080E00895CF92DF926A
:1024C000FF920F931F93CF93DF936C0100910C0544
:1024D00080914903082BC7E0D0E010E0FC2EC80132
:1024E0000C2E02C0959587950A94E2F780FD0CC0EA
:1024F0002197A0F7F12C8F2DDF91CF911F910F9194
:10250000FF90DF90CF900895B6018C2F0E9451125A
:102510000E94CE0E019761F3EECFCF93DF93EC01D3
:102520000E945E12BE010E945112DF91CF910C9465
:10253000CE0EFC01808191810E948D1292959F7038
:10254000963091F058F4925F9F70923058F4803F2B
:1025500019F030F4883E30F481E008959A5FF4CFAA
:10256000843FD1F380E00895883EB0F3813FD1F7F6
:10257000F3CF83E290E00E945E2E823289F484E2FF
:1025800090E00E945E2E823159F485E290E00E9434
:102590005E2E91E0843109F090E0892F81700895DA
:1025A00080E0FCCFCF9384E090E00E945E2EC82FA5
:1025B00082E290E00E945E2E982F8C2FCF9108959A
:1025C0001F93CF93DF93EC01FC01E35AFD4F808111
:1025D0006823C9F00E94282E182F0E94282E8F777A
:1025E000782F20E8720F08F47FEF612F80910905A2
:1025F0000E94E209462F282F672FCE01DF91CF914D
:102600001F910C947008DF91CF911F910895DF9274
:10261000EF92FF920F931F93CF93DF938C01FC01F6
:10262000E35AFD4F8081682381F1D0900805D09155
:102630000905C0910705EC2EF12C0E94282E282FA9
:10264000C7018C549F4F68E671E00E94BB2D8E1924
:102650009F0997FD03969595879595958795237086
:102660006C2F289F600D11247D2D8D2F0E94E20973
:10267000462F282F672FC801DF91CF911F910F910F
:10268000FF90EF90DF900C947008DF91CF911F9135
:102690000F91FF90EF90DF9008959F92AF92BF92BD
:1026A000CF92DF92EF92FF920F931F93CF93DF931E
:1026B000182F80911101811323C09091060593700A
:1026C0002091100130E081E09217130609F480E0B8
:1026D00081708093150180910B05909114019817DA
:1026E00039F08093140140E060E080E00E946E08C1
:1026F000183260F4E12FF0E0E55FF04D0C94CF2D3F
:1027000081E0E6CF80911501811102C0C0E08DC14A
:1027100040E060E080E00E946E08F8CFC0911301B5
:10272000C295C07F00E10C0FF02E0F3410F0AEE424
:10273000FA2E6091070570910805809109050E94A5
:10274000E209E62ED72EC82ED0E0CF1528F0C1E042
:102750000E3408F46AC1DACFFE01E35AFD4F8081DE
:1027600090911401892331F02C2D4E2D6D2DCE0129
:102770000E9470082196E9CFC0911301C295C07FD5
:1027800000E10C0FF02E0F3410F0FEE4FF2ED0907D
:102790000805E0900905D09107056D2F7D2D8E2D40
:1027A0000E94E209C62EB72EA82E60910A056D0F71
:1027B0007D2D8E2D0E94E209E62ED72E982ED0E098
:1027C000CF1528F6FE01E35AFD4F90818091140148
:1027D000892359F0292D4E2D6D2D90FD03C02A2DF2
:1027E0004C2D6B2DCE010E9470082196E9CFC0912F
:1027F0001301C295C07F00E10C0FE02E0F3410F0E2
:10280000EEE4EE2ED0900805C090090520910A054F
:1028100070E4F72E3F2D329F312D1124F32ED0E09E
:10282000CE1508F094CFFE01E35AFD4F80819091C0
:1028300014018923B9F0FE01EE0FFF1FEE53FE4F86
:10284000808182958F70609107058F9D600D1124A6
:102850007D2D8C2D0E94E209462F282F672FCE0157
:102860000E9470082196DCCFC0911301C295C07FF1
:1028700000E10C0FE02E0F3410F05EE4E52ED09056
:102880000805C090090520910A0540E4F42E3F2D6B
:10289000329F312D1124F32ED0E0CE1508F057CF02
:1028A000FE01E35AFD4F8081909114018923D9F0F4
:1028B000FE01EE0FFF1FEF53FE4F6081F69EB00149
:1028C000112435E0759567953A95E1F780910705F4
:1028D000680F7D2D8C2D0E94E209462F282F672F2F
:1028E000CE010E9470082196D8CFC0911301C295E5
:1028F000C07F00E10C0FF02E0F3410F09EE4F92E93
:10290000E0900705D0910805D090090560910A056F
:102910006695669566958091D5049091D6040E943F
:10292000D8090E943E09805887FD8195880F282F7D
:102930003D2D239F212D1124822F6E2D7D2F0E944E
:10294000E209E62ED72EC82ED0E0CF1508F0FFCE34
:10295000FE01E35AFD4F808190911401892331F0EB
:102960002C2D4E2D6D2DCE010E9470082196EDCF9D
:1029700085E498E00E94B50B07C08BE198E0FACFA0
:1029800080E299E00E94DC0CC82F4FC081E099E002
:10299000F9CF86EE98E00E94610CF6CF8AEC98E0C1
:1029A000FACF89E198E0E6CF80E198E0E3CF87E0D5
:1029B00098E0E0CF8EEE97E0DDCF80EE97E0EBCFB2
:1029C00080EB99E0DFCF89EB98E0DCCF85EA98E0F7
:1029D000E2CF83EB97E00E94010CD6CF85E897E029
:1029E000FACF8EE497E0F7CFC0911501C1113CC03A
:1029F00060910A0520E1620F08F46FEF8091D50421
:102A00009091D6040E94D8096AE070E00E94A72D38
:102A1000892B09F07BCE0E94282E6EE470E00E9484
:102A2000BB2D609114010E940713809113018F5FE9
:102A300080931301C1110CC082E080931601809134
:102A40001501811105C0111103C083E080931601A7
:102A5000DF91CF911F910F91FF90EF90DF90CF907A
:102A6000BF90AF909F900895C0911301C295C07F11
:102A700000E10C0F802F0F3408F08EE4D0E0E82E38
:102A8000F12CCE15DF050CF062CE60911401CE0161
:102A90000E9407132196F5CFC0911501C1111EC0E8
:102AA00060910A0520E1620F08F46FEF8091D50470
:102AB0009091D6040E94D80965E070E00E94A72D8D
:102AC000892B09F023CE0E94282E6EE470E00E942C
:102AD000BB2D609114010E94E012A7CFC091130199
:102AE000C295C07F00E10C0F802F0F3408F08EE4F8
:102AF000D0E0E82EF12CCE15DF050CF028CE609149
:102B00001401CE010E94E0122196F5CFC09113016D
:102B1000C295C07F00E10C0FF02E0F3410F08EE450
:102B2000F82ED0900805E0900905D0910705609136
:102B30000A056695669566958091D5049091D604B0
:102B40000E94D8090E943E09805887FD8195880F10
:102B5000682F2CE0629F612D11246D0F7D2D8E2D2D
:102B60000E94E209E62ED72EC82ED0E0CF1508F03D
:102B7000EECDFE01E35AFD4F80819091140189232F
:102B800031F02C2D4E2D6D2DCE010E947008219616
:102B9000EDCF8DE599E0EECE8DE397E0EBCE86E3C9
:102BA00097E00E943E0BF0CE80E397E0FACF809151
:102BB000D90421E0382F321B08F430E0832F67E17D
:102BC00077E00E94760AE0CE67E177E080E0F9CF17
:102BD0008091D90421E0382F321B08F430E0832F94
:102BE0006CED76E0EECF6CED76E0F0CF8091D9041D
:102BF00021E0382F321B08F430E0832F6AEA76E0B8
:102C0000E0CF6AEA76E0E2CF8091D90421E0382F64
:102C1000321B08F430E0832F62E976E0D2CF62E91C
:102C200076E0D4CF8091D90421E0382F321B08F40C
:102C300030E0832F6CE776E0C4CF6CE776E0C6CF58
:102C40008F929F92AF92BF92CF92DF92EF92FF92BC
:102C50001F93CF93DF938091A3039091A403A0913E
:102C6000A503B091A6032FB7F89480909D0490908F
:102C70009E04A0909F04B090A0042FBF7501640132
:102C8000C81AD90AEA0AFB0A2FB7F89440919D04A2
:102C900050919E0460919F047091A0042FBF4093B7
:102CA000A3035093A4036093A5037093A60310910C
:102CB0007A03EAE7F3E0C12FD0E00197AF4FBF4FAF
:102CC00088199909AA09BB091D1327C0C0937A0363
:102CD0008091AB03C0E0811108C080910605C82F28
:102CE000C37019F0C82FC695C69580911601813022
:102CF000F1F1882329F1823009F469C0833009F4A5
:102D000071C0DF91CF911F91FF90EF90DF90CF9036
:102D1000BF90AF909F908F900895218D328D490183
:102D2000B12CA12C88159905AA05BB0520F4C1502A
:102D3000DF5F3296C9CF2C0D3D1D328F218FF8CF2A
:102D4000109213014093D5045093D6046093D70496
:102D50007093D80489E2EAE7F3E0A9EDB4E00190CA
:102D60000D928A95E1F781E080931601CACF8C2FEE
:102D70000E944D13CC2329F20E94E40581FF1FC05D
:102D8000609109056830B8F06C3AB8F48091A703F7
:102D900080FF685F262F462F85E290E0DF91CF917C
:102DA0001F91FF90EF90DF90CF90BF90AF909F90DA
:102DB0008F900C94700868E0EDCF64EBEBCF8091BE
:102DC000A70380FF9ECF20E040E060E0E5CFC09306
:102DD0001101809106058370809310010E94781183
:102DE00083E0C2CF80910505882351F046E050E092
:102DF0006CE170E086E095E00E94722E109205056D
:102E00004091D5045091D6046091D7047091D804B4
:102E10002FB7F89480919D0490919E04A0919F04F7
:102E2000B091A0042FBF841B950BA60BB70B409746
:102E3000A105B10508F465CF1092160162CFE6E056
:102E4000F5E085E380838091170190911801A091AE
:102E5000190181839283A3838FE784838FEF858316
:102E600046E050E06CE170E0CF010E94722E1092BB
:102E7000050508954F925F926F927F928F929F9275
:102E8000AF92BF92CF92DF92EF92FF920F931F9378
:102E9000CF93DF93CDB7DEB72A970FB6F894DEBF96
:102EA0000FBECDBF8E010F5F1F4F8AE0F801119258
:102EB0008A95E9F79BE4E92E91E0F92E680120E577
:102EC000422E21E0522E66246394712C4FE5842E0D
:102ED00041E0942EF70181917F018F3F09F445C0B5
:102EE000F894E82FE295EF70F0E021A18F70A30134
:102EF00002C0440F551F8A95E2F7CA01922F982B02
:102F000091A392A18095892382A3789400C0E0E5E3
:102F1000F1E021E030E0B12CA12C41914F3F09F4C8
:102F20007EC0A42FA295AF70B0E090968C9190E0F7
:102F30004F7002C0959587954A95E2F780FD6FC066
:102F4000C901A82AB92A220F331F8E169F0629F716
:102F5000F701319780818F3F11F00E94740E50EA83
:102F60005A95F1F7F601B182A082F2E0CF0ED11CA2
:102F70004E145F0409F0AECF4AE050E0B8018DE492
:102F800093E00E94382EFF24F394009709F4F12C6B
:102F9000892B09F447C08AE0F801ADE4B3E0019061
:102FA0000D928A95E1F781E080934C030E944D05D4
:102FB00090934B0380934A0380914A0390914B0373
:102FC0000E943E05059790F180914D0390914E032C
:102FD000909364038093630380914F039091500317
:102FE00090936603809365038091510390915203FF
:102FF00090936803809367038091530390915403E7
:1030000090936A03809369038091550390915603CE
:1030100090936C0380936B0310924C0307C090E075
:1030200080E08FCF80914C038111C6CF8F2D2A96DF
:103030000FB6F894DEBF0FBECDBFDF91CF911F91C9
:103040000F91FF90EF90DF90CF90BF90AF909F9047
:103050008F907F906F905F904F900895809147037D
:1030600090914603892B8093AE0290914803992357
:10307000A1F0892B8093AE02809112018823D9F1AF
:103080008091A10487FF37C08EE1E0EBF2E090E091
:10309000815098F591110E94561040E250E066E28E
:1030A00073E08EEA92E00E94382E892B59F180E27B
:1030B000EEEAF2E0A6E2B3E001900D928A95E1F724
:1030C000E0919804F09199043097E1F08091120119
:1030D000882359F08091A10487FF07C08091AE0238
:1030E0008093AF0286E08093AE020280F381E02DF0
:1030F0008EEA92E0099486E0C8CF2191222341F222
:103100009F5FC6CF089590E080E00E94CE0590E0DA
:1031100080E00E94B805109246030E942E1886E0B7
:10312000E4E7F3E0DF011D928A95E9F710926E0360
:1031300010926D0310926F030C94360D80930C0562
:103140000C94831880910C05982F9670963019F482
:1031500088600C949E18877FFCCF21E030E001C08E
:10316000220F8A95EAF7209580910C0582230C9412
:103170009E18909125038095892380932503282FFD
:10318000277091F4282F082E000C330B921713068A
:1031900059F09091A20492FD07C08595859585957B
:1031A0000E94AD18109225030895CF93C091A204F8
:1031B000C2FB992790F9981799F080FBC2F9C09348
:1031C000A2046091A10484E090E00E94822E6C2F02
:1031D00082E290E00E94822E82E0CF910C94B91896
:1031E000CF91089521E030E001C0220F8A95EAF7DF
:1031F00080910C05822B0C949E18809349030C94AB
:1032000083181092470380911201E0EBF2E08823CB
:1032100059F08091A10487FF07C08EE1DF011D9264
:103220008A95E9F70C94831886E0F8CF1F93CF9323
:10323000DF93CDB7DEB7AA970FB6F894DEBF0FBE07
:10324000CDBF8DEC94E02091F100DC012D93CD01F8
:10325000B4E0853D9B07B9F78091CE04833009F433
:1032600072C0B8F4813009F449C0823009F4B3C0A7
:103270008091E80083FF8BC28091CD049091CE04B1
:103280009A3008F084C2E92FF0E0ED5CF04D0C9428
:10329000CF2D8A3009F48EC08B3009F471C089308B
:1032A00039F78091CD04813219F78091D104909142
:1032B000D204009711F00297D9F68091E800877F39
:1032C0008093E8008091E80082FF38C09091F3007D
:1032D0008091F200029731F48091F100813011F079
:1032E000863021F48091F1008093A8048091E80059
:1032F0008B778093E8000E942A04BACF8091CD0496
:10330000813A09F0B5CF8091E800877F8093E8008B
:103310008091D1049091D204892B61F460E289EA12
:1033200094E070E00E94DC048091E8008B77809349
:10333000E8009ECF60E090E080E0F3CF8091CB0486
:103340008111C0CF95CF8091CD04813A09F090CF03
:103350008091D1049091D204892B09F089CF80917A
:10336000E800877F8093E8008091E80080FFFCCF31
:10337000809112018093F1008091E8008E77B9CF9F
:103380008091CD04813209F073CF8091D104909166
:10339000D204892B09F06CCF8091E800877F80935D
:1033A000E8000E942A048091CF04809312010E94B9
:1033B00001195ECF8091CD04813209F059CF8091FF
:1033C000E800877F8093E8000E942A048091D0045F
:1033D0008093A7044DCF8091CD04813A09F048CF66
:1033E0008091E800877F8093E8008091E80080FF6B
:1033F000FCCF8091A704BECF803899F0823809F0C5
:10340000C6C18091D1048F70873008F0C0C180930D
:10341000E9008091EB0085FB882780F91092E90094
:1034200006C08091C9049091CA0491118260909164
:10343000E800977F9093E8008093F1001092F100EC
:103440008091E8008E779FC1882309F48DC1823076
:1034500009F09DC18091CF04811190C18091D10468
:103460008F702FEF280F263008F091C18093E9006C
:103470002091EB0020FF82C1933031F48091EB006A
:1034800080628093EB007AC19091EB009061909301
:10349000EB0021E030E001C0220F8A95EAF720938B
:1034A000EA001092EA008091EB008860EACF811177
:1034B0006EC11091CF041F778091E3008078812B3B
:1034C0008093E3008091E800877F8093E8000E946A
:1034D0002A048091E80080FFFCCF8091E30080689F
:1034E0008093E30082E0111183E08093CB044FC10D
:1034F0008058823008F04BC12091CF043091D00425
:103500002C3DE3E03E07A1F583E08A838AE28983CC
:103510004FB7F894DE01139620E03EE051E2E32F2E
:10352000F0E050935700E49120FF03C0E295EF7064
:103530003F5FEF708E2F90E0EA30C0F0C7968D931A
:103540009D932F5F243159F74FBF8091E800877F0B
:103550008093E8006AE270E0CE0101960E94DC04EC
:103560008091E8008B778093E80011C1C096E7CF87
:103570008091D1049091D204432F552743305105B7
:1035800009F44AC078F54130510509F47AC08BE559
:1035900090E0E4EFF5E04230510509F0F8C02091E9
:1035A000E800277F2093E8002091D3043091D404D1
:1035B0008217930708F49C0140E02115310509F0BA
:1035C00065C0411163C08091E80082FDC9CF809140
:1035D000CB04882329F2853019F28091E80083FF1B
:1035E000F2CFBECF4132510509F43CC04232510501
:1035F00009F0CDC08330910508F0C9C0FC01EE0F81
:10360000FF1FE659FE4F0190F081E02D89599E4F32
:10361000DC018C9190E01AC0332721303105D1F0C4
:103620002115310561F02230310509F0B0C0E1E625
:10363000F6E0E4918E2F90E0E1E6F6E007C0EFE8D7
:10364000F6E0E4918E2F90E0EFE8F6E0009709F4C1
:103650009EC0A5CFEFE7F6E0E4918E2F90E0EFE774
:10366000F6E0F4CF8330910508F091C0880F991FE0
:10367000FC01E059FE4F0190F081E02D89E090E0DF
:103680008ECF82E190E0EFE4F6E089CF8091CB0429
:10369000882309F465CF853009F462CF8091E80072
:1036A00083FD5ECF8091E80082FD8DCF8091E800A0
:1036B00080FF83CF9091F3008091F20021153105B6
:1036C00019F08830910550F041E0089709F040E08A
:1036D0008091E8008E778093E8006FCF449140930B
:1036E000F1003196215031090196E8CF803809F078
:1036F0004EC08091E800877F8093E8008091CC04E1
:103700008093F1009DCE811142C01091CF04123000
:10371000F0F58091E800877F8093E8001093CC0457
:103720000E942A04112311F084E005C08091E30077
:1037300087FDFACF81E08093CB0442E061EC81E029
:103740000E94490442E261EC84E00E94490442E2A2
:1037500061EC82E00E94490442E260EC83E00E9456
:1037600049048091CB0413C08091CF04813079F457
:1037700081E0933009F080E08093CA041092E90060
:103780008091E800877F8093E8000E942A0480915E
:10379000E80083FF0AC08091E800877F8093E800FB
:1037A0008091EB0080628093EB00AA960FB6F894AC
:1037B000DEBF0FBECDBFDF91CF911F91089588234B
:1037C00021F00E945C100C942E180895882339F083
:1037D00090914703982B909347030C942E180895CB
:1037E000882379F19CEF980F913A38F4682F8EEA8C
:1037F00092E00E9459050C942E1890E2980F983090
:1038000050F4877091E001C0990F8A95EAF7892FEB
:103810000E945C10F0CF9BE5980F933020F490E06D
:1038200080E00C94CE0598E5980F973120F490E055
:1038300080E00C94B805803F20F00E945D0D0C9450
:10384000360D0895CF93C82F882309F46FC08CEFED
:103850008C0F813AC0F580911201882311F180917B
:10386000A10487FF1EC0EC2FE695E695E695F0E0F3
:10387000E255FD4F828190E04C2F477021E030E00F
:1038800002C0220F331F4A95E2F782239323892B2C
:1038900091F06C2F8EEA92E00E9459050E942E183A
:1038A0000AC0E0EBF2E086EB92E02191C21789F3C7
:1038B0008E179F07D1F76C2F8EEA92E00E94830546
:1038C000CF910C942E1880E28C0F883068F4C7706A
:1038D00021E030E001C0220FCA95EAF7809147034A
:1038E000822B80934703ECCFEBE5EC0FE33040F401
:1038F000F0E0E65EFE4F808190E0CF910C94CE0523
:10390000E8E5EC0FE73150F4F0E0EE0FFF1FE35E67
:10391000FE4F80819181CF910C94B805C03F30F06B
:103920008C2F0E94180ECF910C94360DCF910895D4
:103930001F93CF93DF93182FD0E0C0E0893311F4A9
:10394000C0E5D0E0812F0E94221C209731F4812F06
:10395000DF91CF911F910C94F01B8FE99FE00197AD
:10396000F1F700C000002197F0CF0F931F93CF9382
:10397000DF93C62FD42F022FFC0182818823A1F070
:10398000609304050E944D05909303058093020502
:10399000C77081E001C0880FCA95EAF7DF91CF9127
:1039A0001F910F910C94E61B80910405681335C09C
:1039B00080910205909103050E943E05883C910587
:1039C00060F510E21D0FCD17B9F080E28C0F883042
:1039D00040F4C77081E001C0880FCA95EAF70E94E1
:1039E000DF1B183048F481E09D2F977001C0880FCD
:1039F0009A95EAF70E94E61B802F0E94981C1830C7
:103A000098F4D77081E001C0880FDA95EAF7DF916A
:103A1000CF911F910F910C94DF1BC77081E001C003
:103A2000880FCA95EAF7F3CFDF91CF911F910F91DD
:103A30000895DF92EF92FF920F931F93CF93DF933E
:103A4000E82FF0E0EC50FE4FD490282F26952695D5
:103A5000269530E0F901EC51FE4F0491877010E09B
:103A6000082E02C0159507950A94E2F701701127F8
:103A7000F901EC52FE4FE490F12C082E02C0F594AF
:103A8000E7940A94E2F791E0E922FF24F901EC536C
:103A9000FE4FC491D0E002C0D595C7958A95E2F754
:103AA000C170DD270115110519F081EE0E94221C5D
:103AB000E114F10419F086EE0E94221C8D2D0E9463
:103AC000981CEF2819F086EE0E94F01B012B19F0CC
:103AD00081EE0E94F01BCD2B51F08CE2DF91CF9153
:103AE0001F910F91FF90EF90DF900C94981CDF9145
:103AF000CF911F910F91FF90EF90DF90089590E08C
:103B000080E00E946C2E893E9E4F11F40C94B912F5
:103B100080E008959091A703892F83708330A1F0EE
:103B20008FEF90FD82EF91FD22C080930B05809175
:103B30000605837011F410921601809106058C7FA2
:103B400081608093060507C010920B0540E060E09D
:103B500080E00E946E084091A7035091A8036091F5
:103B6000A9037091AA038FE090E00C94942E8DEF3E
:103B7000DCCF69EE7EEF90E080E00E94A02E60E056
:103B800082E090E00E94822E60E083E090E00E945C
:103B9000822E1092490360E084E090E00E94822E21
:103BA00060E082E290E00E94822E60E085E090E09A
:103BB0000E94822E60E086E090E00E94822E6FEFED
:103BC00087E090E00E94822E40E050E0BA0188E059
:103BD00090E00E94942E60E08DE090E00E94822EA2
:103BE00040E050E0BA0188E190E00E94942E60E04D
:103BF00087E190E00E94822E40E050E0BA018CE123
:103C000090E00E94942E70E060E080E290E00E94DC
:103C1000A02E40E050E0BA0188E190E00E94942E8E
:103C200080E00E9404120E941C1240E050E0BA01A1
:103C30008FE090E00E94942E1092A7031092A803A8
:103C40001092A9031092AA030C948A1D8FE090E0B1
:103C50000E94662E6093A7037093A8038093A90324
:103C60009093AA030C948A1D8F929F92AF92BF9259
:103C7000CF92DF92EF92FF920F931F93CF93DF9338
:103C800000D000D00F92CDB7DEB77C01FC0183815C
:103C90009481892B31F08081918189238F3F09F0B4
:103CA000B2C50F900F900F900F900F90DF91CF91B2
:103CB0001F910F91FF90EF90DF90CF90BF90AF904A
:103CC0009F908F9008950E945E12182F682F89810F
:103CD0009A810E94951069817A81812F0E945112E8
:103CE0008C01F7018281882309F481C59801225152
:103CF0003F452031310508F002C58FEF93E00E9467
:103D00005E2E02517FE7C72E72E0D72E882371F115
:103D100080912503877029F2F7018281882309F4B5
:103D2000C0CF8091A20482FDBCCF82E00F900F90A3
:103D30000F900F900F90DF91CF911F910F91FF90F7
:103D4000EF90DF90CF90BF90AF909F908F900C94AA
:103D5000B918C114F4E0DF06D9F2C6010E945E2E44
:103D6000811101C001502FEFC21AD20A0111F1CF07
:103D70001C821B82BB24B3946AE0A62E86010F5FCF
:103D80001F4FC6010E945E2E89831A82882309F480
:103D9000BFCF9FEF980F933008F58A83B98232E046
:103DA000C30ED11CC8010E945E2E8B83882309F4A8
:103DB000AFCF8E010F5F1F4FF80180818823F1F292
:103DC000813009F043C091818281913049F40E5FC6
:103DD0001F4F0E94981C0F5F1F4FEECF6801E9CF65
:103DE000923029F40E5F1F4F0E94221CF4CF9330B3
:103DF00029F40E5F1F4F0E94F01BEDCF943019F095
:103E00000F5F1F4FE8CF0E5F1F4F30E020E0B8017B
:103E10006F5F7F4FF80141818053990B8A30910584
:103E200050F021503109B8F28FE99FE00197F1F786
:103E300000C00000F6CFA29EF001A39EF00D112459
:103E40009C012E0F3F1F842F8B01E1CF0E94191D73
:103E5000C2CF81E00E94F2180E94A21859CF81E0DF
:103E60000E94AD18F9CF82E0F5CF0238EFE51E07CA
:103E700009F448C008F4CBC003382FE5120709F451
:103E80004BC009383FE5130709F455C0033F3CE533
:103E9000130709F4D6C008F0BFC0083D9CE5190718
:103EA00009F4CBC0093DECE51E0709F4D6C0073D77
:103EB000FCE51F0709F04CC426E241EE61EEB9C0F3
:103EC000882309F425CF8091A703982F917080FD56
:103ED0000AC081FD08C08091A70381608093A70379
:103EE0000E948A1D15CF80FF05C081FD03C08C7F15
:103EF0008260F4CF911102C081FDEDCF8091A703C4
:103F00008C7FECCF882309F403CF9091A703892FEE
:103F10008E7F90FF8160E2CF882309F4F9CE9091E3
:103F2000A703892F8D7F91FF8260D8CF811110C4A4
:103F30000E94261E0DC4909147039111E9CE811174
:103F4000E7CE44E7C42E42E0D42E5AE0B52EF60167
:103F50008491882309F4DCCE813009F04AC08601BF
:103F60000F5F1F4FF8018491813059F40F5F1F4F8D
:103F7000F80184910E94981C68012FEFC21AD20A9E
:103F8000E6CF823041F486010E5F1F4FF801849125
:103F90000E94221CF1CF833041F486010E5F1F4F37
:103FA000F80184910E94F01BE7CF843029F7860145
:103FB0000E5F1F4FF801249190E080E0F8013196E8
:103FC0002053330B2A30310548F00197A8F2EFE96E
:103FD000FFE03197F1F700C00000F7CFB89EA001D5
:103FE000B99E500D1124C901840F951F24918F0192
:103FF000E5CF0E94191D8601BFCF882329F08FE9E4
:1040000092E00E94B80584CE90E080E0FACF882349
:10401000D9F380EA92E0F5CF053F2CE51207C9F00D
:10402000A0F027E245EE66EE063F8CE5180709F0A2
:104030008FC3C7010E94B51C6BCE27E245EE65EE2B
:10404000F8CF26E241EE60EEF4CF27E245EE64EED3
:10405000F0CF26E241EE62EEECCF28E241E0EFCF76
:1040600001363DE5130709F489C3053A8DE51807C4
:1040700009F484C306312CE5120709F03EC480918F
:1040800047038A7A91E009F490E09093CE0269E2C6
:10409000811165E38EEA92E00E9483050E942E184A
:1040A00037CE8091A104806207302CE5120709F415
:1040B00092C08091A104806108301C4508F48BC037
:1040C0008091A104806487C00D308CE5180709F445
:1040D0009BC098F48091A1048E7F0B30ECE51E0705
:1040E00009F479C08091A1048C600C301C4508F45F
:1040F00072C08091A1048D7F6EC08091A1048F7EDB
:104100000F302CE5120709F466C08091A104877F67
:1041100000311C4508F45FC08091A1048F7D5BC015
:104120000D3F8CE5180709F477C050F50531ECE533
:104130001E0709F47FC098F48091A104837F0331A6
:104140002CE5120709F447C008F46EC00E9401195B
:104150009091A104892F97FB87F980583CC00B3FB1
:104160008CE5180709F442C008F052C08091A204FF
:1041700081600A3F1C4509F02AC38093A20427C32B
:104180000130FDE51F0709F461C090F48091A2049D
:104190008C7F0F3F3CE5130781F390F18091A204DF
:1041A000982F909591708E7F892B90FB81F9E5CFA8
:1041B00001369DE5190709F44FC0053AEDE51E07E4
:1041C00009F451C002301D4509F001C360E03FC051
:1041D0008091A10482608093A104F9C28091A1041E
:1041E0008460F9CF8091A1048860F5CF8091A2040A
:1041F0008260C3CF0E9401198091A1048068EBCF37
:104200008091A2048360B9CF8091A1048B7FE3CF1A
:104210008091A2048E7FB1CF8091A2048D7FADCF1B
:104220008091A1048F7BD7CF0E9401198091A104B6
:104230008F77D1CF8091A10482FB992790F921E05B
:10424000922790FB82F990FB83F9C5CF61E08EE065
:1042500090E00E94822EBBC29091A104892F8F7E94
:1042600094FF8061B8CF9091A104892F8E7F90FF39
:104270008160B1CF8091CE0269E2811165E38EEA5F
:1042800092E00E9459050ACF49E656E062E776E0DF
:104290000E94F0053DCD42E756E069E676E0F8CFB2
:1042A00047E556E060E676E0F3CF40E656E067E5A6
:1042B00076E0EECF4FE356E06BE476E0E9CF4BE4F7
:1042C00056E06FE376E0E4CF43E356E067E276E062
:1042D000DFCF4BE056E069E176E0DACF49E156E026
:1042E0006BE076E0D5CF81E00E94840311CD8DE0B4
:1042F000FBCF0E9401193FEF84E39CE031508040E6
:104300009040E1F700C000000E94541181E015C305
:1043100080E013C3C8010E946D10D82E1FC3212F47
:104320002F70C22E107F19F0C29490EFC922DD20A9
:10433000B9F0CC2069F080E2800F883010F0811055
:1043400009C080914703C82AC09247030E942E18D3
:10435000802F4AC080914603C82AC0924603F6CFF8
:10436000802F0E94F01BCC2009F440C0005E083072
:1043700010F0811004C08C2D0E945C1006C0C09407
:1043800080914603C822C09246030E942E182EC078
:10439000312F3F70C32E107F103219F0C29480EF7E
:1043A000C822882089F081E0881609F478C0DD20D1
:1043B00009F482C0BB2009F478C0F701858180FF31
:1043C000C7CF8F70858371C02091A20422FF44C0A3
:1043D000DD20E1F1CC2039F080914703C82AC0925A
:1043E00047030E942E1880E00E94221CE92DE8500D
:1043F000FF0B349710F40E94E405AA2009F451CC75
:104400008091250380FD4DCCF7011282859585951D
:1044100085950E94F218C7010E94341E80912503E1
:104420008595859585950F900F900F900F900F9023
:10443000DF91CF911F910F91FF90EF90DF90CF9080
:10444000BF90AF909F908F900C94AD1880E00E9429
:10445000F01BCC2059F28FCFDD20A1F090914803C2
:104460008C2D892BB11003C00E94E61BBFCFE1E069
:10447000BE12FACF22FDBACF981709F4B7CF8093B6
:104480004803B4CFB11006C00E9456108C2D0E9474
:10449000DF1BACCFF1E0BF1609F4A8CFF5CFDD20CC
:1044A00031F025E02B1508F4A1CF8C2DDDCF34E0C1
:1044B0003B1508F49BCFEACFBB2041F3F9E38F1201
:1044C00017C12FEF37EE83E0215030408040E1F7F5
:1044D00000C000000DC1812F86958695837061F024
:1044E000813009F083CFC8019370D11002C090E0F1
:1044F00080E00E94B8057ACFC8019370D11002C045
:1045000090E080E00E94CE0571CF802FDD2029F061
:104510000E94180E0E94360D69CF0E945D0DFACFE1
:10452000812F837089F5D11061CF402F4295469538
:104530004770440F440F802F8F70042E01C0880FE6
:104540000A94EAF7202F207104FF07C02FE030E023
:1045500001C0220F4A95EAF720951695169513701B
:10456000123069F050F430914903113029F0822B58
:1045700083230E94FD183ACF832B822BFACF282B5E
:10458000809149038227F5CF8695DD2011F0812F98
:104590008170882309F42ACF402F429546954770B1
:1045A000440F440F802F8F70042E01C0880F0A948F
:1045B000EAF7202F207104FF07C02FE030E001C090
:1045C000220F4A95EAF7209516951695137012302A
:1045D00069F050F430910C05113029F0822B8323BF
:1045E0000E949E1803CF832B822BFACF282B809119
:1045F0000C058227F5CF1F70DD2029F0812F0E9446
:10460000F218802F31CF802F0E94DF1B812F0E9454
:10461000AD18ECCE802F92EF8916A9F1981570F0A5
:10462000E0EF8E16D1F0F1EF8F1691F0DD2009F456
:104630005AC0B1108DCE812F8F7129C023EF821601
:1046400049F134EF8312F2CF8091A20482FF2DC092
:10465000812F8F71DD20D9F21AC0DD2079F084E03E
:104660008B1508F4C3CE1F7181E090E001C0880F64
:104670001A95EAF790910C058927B2CF95E09B1522
:1046800008F4B4CEF0CF812F8F71D110C0CF0E942B
:10469000F218ACCE80E0DD2009F4A2CF1F7181E0DA
:1046A00001C0880F1A95EAF79BCFDD2089F01F71B2
:1046B000812F0E94F2188091A20482FD07C0E8E0D9
:1046C0001E9FC0011124836080932503812FDFCFBB
:1046D00081E00E94B918F1E0FB1508F087CE82E076
:1046E0000E94B91883CEBB2039F0893309F4E9CE92
:1046F000802F0E94F01B7ACE812F8F7188CF0031DE
:10470000FFE51F0709F4A5CB01312FE5120709F4D6
:10471000AACB0038EFE51E0709F46FCC08F0A5CB53
:10472000023C2CE5120709F4CBCB0E3D3CE5130708
:1047300009F4FCCB01159CE5190709F0A7CB8823E8
:1047400039F040E060E084EB0E946E080E9478112E
:10475000F7018281882309F467C0109204050330B1
:10476000FDE51F0708F07CCC0A3F2CE5120730F46A
:10477000C80182509C45449708F07CCC0E94D2121C
:104780009093A2048093A10401319CE5190709F4D8
:1047900047CD08F0C5CC0930FCE51F0709F42ACD48
:1047A00008F092CC05303CE5130709F41BCD08F066
:1047B00078CC03309CE5190709F40ACD08F00ECD3A
:1047C0008091A104816002301C4509F404CD609100
:1047D000A1041091A20484E090E00E94822E612F37
:1047E00082E290E00E94822E0E94011991CA00315B
:1047F0003FE5130709F433CB01319FE5190709F0B1
:1048000088CF82E02DCB85E0DE01119601900D92DC
:104810008A95E1F7F701228189819A81211153CA92
:104820000E946D10182F57CA0631FCE51F0709F4C6
:1048300021CD8091470382720A3C2CE5120709F4CE
:1048400043CDA0F5053C9CE5190709F429CDC8F432
:10485000033CFCE51F0709F417CD08F01CCD023C12
:104860001C4509F06CC08091060591E08927809372
:10487000060510921601809105058160809305055B
:1048800047CA073C9CE5190709F414CD08F40DCD7F
:10489000083CFCE51F0709F412CD47E256E063E34C
:1048A00076E0093C1C4509F4F3CC49C00F3C3CE5DB
:1048B000130709F41CCD90F40C3CECE51E0709F439
:1048C0000DCD08F406CD0D3C2CE5120709F40BCDF7
:1048D00085E00E3C1C4509F407CD31C0063D8CE552
:1048E000180730F482E1013D1C4508F4FDCC10CAE4
:1048F0000D351D4509F40CCA22C00A35FDE51F0718
:1049000009F404CD58F401153CE5130709F4F1CC82
:104910000E3D1C45A1F40E94B91DFAC90B359DE559
:10492000190709F4F5CC0C351D4549F48091A20412
:1049300082FB882780F991E089270E94D518F7012A
:10494000828100811181882309F4E4CCC8010E948E
:104950005E12D82E682FC8010E949510B8018D2DC7
:104960000E9451120E94CE0E8C01882EF701D28037
:10497000B580B2943FE0B322809125038770C1F0E7
:10498000AD2CDD20B1F0812F807F803421F080E2DA
:10499000800F883068F08091A20482FD09C082E017
:1049A0000E94B918809125038770AA24A3948111CD
:1049B000A12C912E92942FE09222FBE0F91508F49D
:1049C00015CDE92DF0E0E35CF04D0C94CF2D1F9355
:1049D000CF93DF938091F202807FA9F48091EF0260
:1049E000882389F080912403D091F3026091ED0235
:1049F0007091EE02A091F002B091F102C62FC72390
:104A000016E0D81304C0DF91CF911F91089590E074
:104A1000109711F0CF3F19F401968770F2CF189FCD
:104A20009001199F300D1124F901EC50FD4F418187
:104A30004713F2CF40814613EFCF42814111ECCFB3
:104A4000438154814A1B5B0B483C510528F78091F8
:104A5000F2028F7080618093F202F901E750FD4FFE
:104A600080818F70806180838DEE92E00E94341E81
:104A7000DF91CF911F910C946310AF92BF92CF92B0
:104A8000DF92EF92FF920F931F93CF93DF93CDB7F7
:104A9000DEB761970FB6F894DEBF0FBECDBF8C01B5
:104AA00085E0F801DE011D9601900D928A95E1F7EF
:104AB000F801E2808DEEA82E82E0B82E6091F0021F
:104AC0007091F1026115710509F432C19091ED0206
:104AD0004091EE02892F84238F3F09F429C1208160
:104AE0003181C380D480F090EF02F601E61BF70B12
:104AF000FF2009F4E8C08091F202582F507FE83C73
:104B0000F10508F0ABC0511177C0FE2C431321C052
:104B100092131FC0E1101DC08F7080618093F2025C
:104B2000C5010E94341E8091F202F80185838F2D09
:104B300061960FB6F894DEBF0FBECDBFDF91CF9167
:104B40001F910F91FF90EF90DF90CF90BF90AF90AB
:104B50000895CD2829F0822F83238F3F09F003C1C8
:104B600080E0F82FF170DF2E80FF3CC0809124039D
:104B70004091F30256E0841315C02D873E878D8542
:104B80009E850E948D12292F22952F702230F0F0E1
:104B9000243018F59F70F1F0F8019581907FD1F4E1
:104BA000D12C1EC090E0589FF001599FF00D1124A8
:104BB000EC50FD4F6181361306C06081261303C09F
:104BC0006281E6120FC001968770D5CF9F7011F0F9
:104BD000882331F3805E883018F3C8010E94341EA8
:104BE000FD2CA5CFEE2009F4A2CF8091F2028160C6
:104BF0008093F202F12C9BCF431306C0921304C0A2
:104C0000F801EE2009F479C0C8010E9499128823A6
:104C100009F1EE20F9F08091F202803270F02091DB
:104C2000ED023091EE0238872F831986DB86CA8623
:104C30008C87CE0107960E94341E86E0F801ADEE07
:104C4000B2E001900D928A95E1F70E94E724FF24DB
:104C5000F3946DCFC8010E94341EF9CF51110AC0E0
:104C60008DEE92E00E94341E86E0F50111928A9545
:104C7000E9F7C0CF43130FC092130DC0E1100BC072
:104C8000F8018583C8010E94341E86E0F501119267
:104C90008A95E9F74CCFC8010E9499128823D1F276
:104CA000EE20C1F28091F202803238F22091ED02C2
:104CB0003091EE023A8329831B82DD82CC828E837F
:104CC000CE010196B8CFE83CF105F8F6FE2CEE20B7
:104CD00009F243131FC092131DC08091F20280FDA0
:104CE00010C0982F907F69F0F8018583903F31F0D4
:104CF000982F907F905F8F70892B8583C8010E94C9
:104D0000341E86E0F801ADEEB2E001900D928A9576
:104D1000E1F70DCFC8010E94991281118ECF8091C9
:104D2000F20281608093F202C8010E94341EFFCE1D
:104D3000EE2009F48FCFC8010E949912F82E882323
:104D400009F488CF86E0F801ADEEB2E001900D9253
:104D50008A95E1F78091ED029091EE020E948D120A
:104D60000E94E724E4CE81E08E25FBCE1F93CF93F3
:104D7000DF93CDB7DEB767970FB6F894DEBF0FBEEF
:104D8000CDBF4B8B5C8B6D8B7E8B8F8B61111092AB
:104D900046031A8A198A85E0FE017396DE011D9684
:104DA00001900D928A95E1F786E0FE013D96DE01C5
:104DB000179601900D928A95E1F7CE0107960E9411
:104DC0003D25882389F016E0809124039091F30219
:104DD000891349C067960FB6F894DEBF0FBECDBFEA
:104DE000DF91CF911F91089586E0FE013796DE0195
:104DF000119601900D928A95E1F78A859B85892B02
:104E000011F38F81988589238F3FE9F22091F30276
:104E100030E0C90101968770992740912403481713
:104E2000190671F40E9401191092F30210922403E2
:104E300086E0EDEEF2E0DF011D928A95E9F7C3CF3F
:104E400096E0929FD001939FB00D1124AC50BD4FBE
:104E5000FE01319601900D929A95E1F78093F3024D
:104E60000E946310B0CF819FC00111248C509D4FD0
:104E70000E943D25882309F4ADCF8091240390E062
:104E8000019687709927809324039ECF1F920F92DB
:104E90000FB60F9211242F933F934F935F936F930D
:104EA0007F938F939F93AF93BF93CF93DF93EF93B2
:104EB000FF93D091E900DF708091EC00C82FC170A2
:104EC00080FDC0E81092E9008091F000877F809318
:104ED000F00078940E9416191092E9008091F00079
:104EE00088608093F000CD2BCF70C093E900FF91D4
:104EF000EF91DF91CF91BF91AF919F918F917F9172
:104F00006F915F914F913F912F910F900FBE0F9036
:104F10001F9018951F920F920FB60F9211242F9386
:104F20003F934F935F936F937F938F939F93AF9331
:104F3000BF93EF93FF938091E10082FF09C08091BE
:104F4000E20082FF05C08091E1008B7F8093E10049
:104F50008091DA0080FF24C08091D80080FF20C0BB
:104F60008091DA008E7F8093DA008091D90080FFF3
:104F70009DC080E189BD82E189BD09B400FEFDCFFD
:104F800081E08093CB048091A604811109C00E9426
:104F9000B0030E947B048091E20084608093E20071
:104FA0008091E10080FF17C08091E20080FF13C074
:104FB0008091E2008E7F8093E2008091E200806128
:104FC0008093E2008091D80080628093D80019BC61
:104FD00085E08093CB048091E10084FF2BC0809119
:104FE000E20084FF27C080E189BD82E189BD89B5E7
:104FF000982F917080FFFBCF8091D8008F7D809398
:10500000D8008091E1008F7E8093E1008091E200E2
:105010008F7E8093E2008091E20081608093E200C5
:105020008091CC04882309F447C084E08093CB04AA
:105030008091CB048091E10083FF27C08091E20042
:1050400083FF23C08091E100877F8093E10082E0AD
:105050008093CB041092CC048091E1008E7F8093EA
:10506000E1008091E2008E7F8093E2008091E20077
:1050700080618093E20042E060E080E00E944904A9
:105080008091F00088608093F000FF91EF91BF91D4
:10509000AF919F918F917F916F915F914F913F91D0
:1050A0002F910F900FBE0F901F90189519BC109262
:1050B000CB041092A60474CF8091E30087FD93E0A7
:1050C0009093CB04B5CF78941F921FB61F921124F2
:1050D0008F939F93AF93BF9380919D0490919E0473
:1050E000A0919F04B091A0040196A11DB11D8093D1
:1050F0009D0490939E04A0939F04B093A004BF913D
:10510000AF919F918F911F901FBE1F9018951F9276
:105110001FB61F9211248F939F93AF93BF938091DB
:105120009C04811113C080919D0490919E04A091D4
:105130009F04B091A0044196A11DB11D80939D04D0
:1051400090939E04A0939F04B093A004BF91AF914D
:105150009F918F911F901FBE1F901895CDB7DEB7FE
:10516000AA970FB6F894DEBF0FBECDBF84B7877F76
:1051700084BF0FB6F894A8958091600088618093F1
:105180006000109260000FBE80E890E00FB6F894C7
:1051900080936100909361000FBE85B7806885BFE2
:1051A00085B7806885BF82E79EE09093AD028093CB
:1051B000AC020E94B0030E947B048091E2008460F4
:1051C0008093E20078948091CB048823A1F0109121
:1051D000E9001F709091EC00892F817090FD80E8AC
:1051E000182B1092E9008091E80083FD0E941619A7
:1051F0001F701093E90082E084BD93E095BD9AEFA3
:1052000097BD80936E000E94B912811102C00E9466
:105210001C120BE411E0D8018D918D018F3F11F02C
:105220000E94740EB1E000351B07A9F700E511E0FC
:10523000F80181918F018F3F11F00E94740EF1E00F
:105240000F351F07A9F78AE0E3E6F3E0DF01282F17
:105250001D922A95E9F7EDE4F3E0DF011D928A95AE
:10526000E9F70E947F1D811102C00E94B91D82E0F2
:1052700090E00E945E2E809357030E94D21290937A
:10528000A2048093A1040E943A17BFEFE6E7F1E081
:10529000B150E040F040E1F700C000000E943A1732
:1052A0008091630380FF08C06FEF7FEF90E080E0A4
:1052B0000E94A02E0E94541183E090E00E945E2E76
:1052C0000E94FD181092D9048FEF9FEF9093F30482
:1052D0008093F2049093F5048093F4049093F70480
:1052E0008093F6049093F9048093F8049093FB0460
:1052F0008093FA049093FD048093FC049093FF0440
:105300008093FE04909301058093000510927A0328
:1053100090939403809393039093960380939503C3
:10532000909398038093970390939A0380939903A3
:1053300090939C0380939B0390939E0380939D0383
:105340009093A00380939F039093A2038093A10363
:105350000E947F1D811104C00E94B91D0E941F1769
:1053600046E050E06CE170E086E095E00E944E2E51
:1053700010920505809106058C7F11F40E941F177D
:105380000E94261E84E091E09093990480939804F3
:1053900028E1A22EB12C30E4532EDD24D3946624D0
:1053A00063948091CB0493E0F92E00E112E1853003
:1053B00009F4F4C10E943A17882359F08FB7F89482
:1053C00040919D0450919E0460919F047091A004AF
:1053D0008FBFA3E6B3E0E8E5F3E010E000E0602F64
:1053E000ED90FD90219131912E153F0509F401C2F8
:1053F0002E253F25C12C88248394912CA901482176
:105400005921452B09F4EFC1C9A26AA3E820F9206C
:1054100081E0E114F10409F480E08BA30E944D05C2
:105420008160782F9DA38CA349A15AA16BA18DA166
:105430000E94B626F801EE0FFF1FE85AFC4F80814C
:1054400091818826992691828082EF2871F08FE0E1
:10545000809FF001819FF00D1124EA58FE4FEC0D62
:10546000F11D80818F3F09F0A5C1C12C0C2D10E0EA
:1054700080917A03800F912F911D09976CF188E03C
:1054800090E07C01E01AF10AB80165587C4FA70151
:105490008BE793E00E94452EB8016D577C4FA70122
:1054A00083E893E00E94452EA701440F551FB801E1
:1054B000660F771F6D567C4F83E993E00E94452E5F
:1054C000B80165577C4FA7018BE893E00E94452EF9
:1054D00088E08C1980937A0380917A0390E0A72D5D
:1054E000B0E09D01220F331F2F533E4FAA0FBB1F69
:1054F000BD016E537E4F41E0480F9C1508F45EC11C
:1055000080937A030E94201686E0E4E7F3E0DE0150
:10551000119601900D928A95E1F7F0907603E09054
:10552000770310917803009179031092760310921B
:10553000770310927803109279038F2D8E2909F446
:1055400048C080917203909173030E943E059C01B4
:1055500090916E03992309F4F5C225313105C8F104
:105560009F3F19F09F5F90936E03FF2059F00E94B8
:10557000F80D9FEF1F140CF491E0899F802D1124EA
:1055800080937603EE2059F00E94F80D9FEF1E14D1
:105590000CF491E0899F802D112480937703309142
:1055A00076033323B1F020917703222391F045EB6A
:1055B0003403C0011124992309F432C19093760376
:1055C00045EB240390011124332309F42CC13093BB
:1055D0007703812F802B09F448C08091700390914C
:1055E00071030E943E059C0190916D03992309F47B
:1055F000A4C221353105C8F19F3F19F09F5F9093F8
:105600006D03112359F00E94D60D9FEF11160CF473
:1056100091E0899F802D112480937803002359F015
:105620000E94D60D9FEF10160CF491E0899F802DFB
:10563000112480937903309178033323B1F02091C2
:105640007903222391F045EB3403C00111249923FF
:1056500009F4ECC09093780345EB240390011124E6
:10566000332309F4E6C03093790380917603909157
:105670007703892B90917803892B90917903892B5B
:1056800011F00E94360D86E0FE013196A4E7B3E0EA
:1056900001900D928A95E1F70E94E40590916203D2
:1056A0008913809362038091CB04843009F079CE12
:1056B00083E08093E9008091E80082FF72CE8091C0
:1056C000E80090E085FF0CC00E94CF0330E2E32E9B
:1056D000F12C8E010F5F1F4F882309F4B7C091E0B2
:1056E0008091E8008B778093E800992309F459CEE4
:1056F000E981E150E33108F038C1F0E0E75BF04DBB
:105700000C94CF2D8091CB04843009F436C00E94D4
:1057100020168091AB0381110DC00E944D13109291
:105720001101809106058370809310010E94781109
:10573000F09216016092AB0310929C040FB6F8949D
:10574000A895A09260000FBE5092600083B7817F41
:10575000846083BF83B7816083BF7894889583B763
:105760008E7F83BF0FB6F894A89580916000886102
:1057700080936000109260000FBE8091CA0488235D
:1057800069F00E943A17E3E6F3E081919191892B49
:1057900009F0B4C123E0ED36F207B9F78091CB04EC
:1057A000853009F4AFCF0E9401190E94E4051092E0
:1057B000AB0300CE782ECC24C39458CE90E0FC01ED
:1057C000E658FC4FD9015C915183DB015C91518714
:1057D000718A880F991FFC01E658FC4F128E118EBA
:1057E00091E0842F88CEC394880C991C4FE0C4129A
:1057F00005CE0F5F1F4F0530110509F0F0CD8FEF7B
:105800008EA38FA318A60E944D058160782F9AA7BA
:1058100089A74EA15FA168A58AA50E94B62672CE6F
:10582000D0927603CDCED0927703D3CED0927803A8
:1058300013CFD092790319CF8091F100D8018D93C5
:105840008D01B1E0EB1AF10809F449CF8091E8002D
:1058500085FDF2CF8091E8008B778093E8000E946D
:10586000CF03882399F33BCF1A8289E08B831AC038
:105870008A81823009F458C18330D9F1813009F02E
:1058800074C02FB7F89460919D0470919E0480912C
:105890009F049091A0042FBF0E94D52D6B837C8321
:1058A0008D839E838091CB04843009F07ACD109152
:1058B000E9001F709091EC00892F817090FD80E8C5
:1058C000182B82E08093E9008091E80080FF0DC0F2
:1058D00050E040E060E270E0CE0101960E940004DA
:1058E0008091E8008E778093E8001F701093E900A4
:1058F00058CD809163039091640398278927982756
:105900009C838B83809165039091660398278927F8
:1059100098279E838D8380916703909168039827D1
:105920008927982798878F838091690390916A03CC
:105930009827892798279A87898780916B03909168
:105940006C039827892798279C878B87ABCF8A8100
:10595000823059F46B817C818D819E810E94D52D8E
:1059600086E290E00E94822E9DCF8FEF89839ACFAE
:105970004C816B818A810E942B1298278927982756
:105980009E838D838FCF0D811E81102701271027C5
:105990008A81EB80EEE1EE9E70011124F6E98F9F83
:1059A000E00CF11C11248C8190E0880F991FE80E07
:1059B000F91E612FC70187960E94822E602FC701B2
:1059C0008896D0CF0E94AF116DCF80E18A836ACFD5
:1059D000DA8281E84BCF0A811B811027012710272B
:1059E000CE0101967C018C80DC01A80DB11D4D011A
:1059F000C80181589D4FE814F90409F453CF0138C8
:105A0000B1E01B0750F40E945E2EF70184830F5F04
:105A10001F4FBFEFEB1AFB0AEBCFD70114961C9276
:105A2000F6CF0A811B81102701271027FE0131962E
:105A30004F01EC80E00EF12EF11CC80181589D4F02
:105A4000E016F10609F42ECF0138F1E01F0728F423
:105A5000D40114966C910E94822EBFEF8B1A9B0A80
:105A60000F5F1F4FEACF0E949F111CCF84E0AECF83
:105A70000A811B81102701271027FE0131967F0123
:105A80008C80CF01880D911D4C01C80187968E1422
:105A90009F0409F407CF0835A2E01A0750F40E94CA
:105AA0005E2EF70184830F5F1F4FBFEFEB1AFB0AD7
:105AB000ECCFD70114961C92F6CF0A811B811027D8
:105AC00001271027FE0131964F01EC80E00EF12EE8
:105AD000F11CC80187960E151F0509F4E3CE0835A1
