:100000000C944B030C9483030C9483030C94830390
:100010000C9483030C9483030C9483030C94830348
:100020000C9483030C9483030C9482270C943E2736
:100030000C947F280C9483030C9483030C94830307
:100040000C9483030C9483030C9483030C94830318
:100050000C9483030C945B280C9483030C9483030B
:100060000C9483030C9483030C9483030C948303F8
:100070000C9483030C9483030C9483030C948303E8
:100080000C9483030C9483030C9483030C948303D8
:100090000C9483030C9483030C9483030C948303C8
:1000A0000C9483030C9483030C94830305010902CD
:1000B000A10185020901A1000509190129081500FE
:1000C0002501950875018102050109300931158165
:1000D000257F95027508810609381581257F9501D0
:1000E00075088106050C0A38021581257F95017572
:1000F000088106C0C005010980A101850319012AF4
:10010000B700150126B700950175108100C0050CD8
:100110000901A101850419012AA002150126A002E6
:10012000950175108100C005010906A1018506052C
:100130000719E029E71500250195087501810205D9
:1001400007190029EF1500250195F07501810205B9
:10015000081901290595057501910295017503910D
:1001600001C00660FF0961A1010962150026FF00B8
:100170009520750881020963150026FF00952075FA
:10018000089102C005010906A101050719E029E748
:1001900015002501950875018102950175088101F9
:1001A0000507190029FF150026FF0095067508812F
:1001B000000508190129059505750191029501753C
:1001C000039101C0000000000000000000000000DA
:1001D000000000000000000000000000000000001F
:1001E00000000000000000007E0F00D4FFFFFFC7EA
:1001F0000000007800000000000000002A2B28000A
:1002000000000000000000000000000000000029C5
:10021000000000002C1E3420212224342627252E05
:10022000362D3738271E1F2021222324252633333D
:10023000362E37381F0405060708090A0B0C0D0E69
:100240000F101112131415161718191A1B1C1D2F35
:100250003130232D350405060708090A0B0C0D0E55
:100260000F101112131415161718191A1B1C1D2F15
:100270003130354C726762746573742F6964363837
:10028000613A69646F62616F202876302E31362EB4
:10029000372D312D673535623362322D64697274C2
:1002A000792900000101010101010101010202029D
:1002B0000202020202020303030303030303040412
:1002C00004040404040505050505060606060607DC
:1002D0000707070708080808090909090A0A0A0B95
:1002E0000B0B0C0C0C0D0D0D0E0E0E0F0F0F101036
:1002F00011111112121313141415151616171718BD
:100300001819191A1A1B1B1C1D1D1E1E1F20202127
:100310002222232424252626272829292A2B2C2D6E
:100320002D2E2F30313232333435363738393A3B8F
:100330003C3D3E3F404142434445464748494A4C84
:100340004D4E4F50515354555658595A5B5D5E5F50
:10035000616264656668696B6C6D6F7072737577E6
:10036000787A7B7D7E8082838587888A8C8E8F9148
:10037000939596989A9C9EA0A2A3A5A7A9ABADAF72
:10038000B1B3B5B7BABCBEC0C2C4C6C9CBCDCFD15C
:10039000D4D6D8DBDDDFE2E4E7E9EBEEF0F3F5F805
:1003A000FAFDFF29001E001F00200021002200236B
:1003B0000024002500260027002D002E002A004AD8
:1003C000002B0014001A000800150017001C00186C
:1003D000000C00120013002F00300031004D0039D6
:1003E0000004001600070009000A000B000D000EB3
:1003F000000F0033003400000028004B00E1000033
:10040000001D001B00060019000500110010003639
:100410000037003800E50052004E00E000E3000025
:1004200000E200000000002C0000000000E60001D7
:1004300051E400500051004F0001003A003B003CE5
:10044000003D003E003F00400041004200430044A8
:10045000004500010001000100C25C5200C35CC500
:100460005CC65CC75CC85CC95CCA5C010001000179
:1004700000010001003900500051004F000100014F
:100480000001000100010049004A004B000000018A
:1004900000010001000000005CCB5CCC5C895FAA1D
:1004A00000A800A9004C004D004E00010001000111
:1004B0000001000100000001000000000001000038
:1004C0000000000100010001000100010001000125
:1004D0000001000100010001000100010001000114
:1004E0000001000100010001000100010001000104
:1004F00000010001000100010001000100010001F4
:1005000000010001000100010001000100010001E3
:1005100000010001000100010001000100010001D3
:1005200000010000000100010001000000010001C5
:1005300000010001000100010001000100010001B3
:1005400000010001000100010001000000010000A5
:100550000000000100000000000100010001000196
:100560000001000100010001000100010001000183
:100570000001000100010001000100010001000173
:100580000001000100010001000100010001000163
:100590000001000100010001000100010001000153
:1005A0000001000100010001000100010001000143
:1005B0000001000100010001000000010001000134
:1005C0000000000100010001000100010001000124
:1005D0000001000100010001000100010001000113
:1005E0000000000100000000000100000000000108
:1005F000000100010001000100010009025B00038D
:100600000100A0FA09040000010301010009211101
:1006100001000122400007058103080001090401CF
:10062000000203000000092111010001222200073D
:1006300005820320000107050303200001090402CD
:1006400000010300000009211101000122B600078A
:100650000584032000011201000200000008646903
:1006600067020002010200010A034900440036004B
:10067000380000001C0344006900730063006F0031
:100680007200640020004E006900740072006F0068
:1006900000000403090411241FBECFEFDAE0DEBF1F
:1006A000CDBF04B603FE18C080910D0590910E05D4
:1006B000A0910F05B09110058730904BA740B04B2B
:1006C00059F410920D0510920E0510920F0510921C
:1006D0001005E0E0F8E3099525E0ACEAB2E001C0DE
:1006E0001D92AD30B207E1F712E0A0E0B1E0E0E525
:1006F000FFE502C005900D92AC3AB107D9F70E9410
:10070000A6280C94552F0C940000E8EDF0E08081B1
:100710008E7F80831092E2001092DA001092E10046
:10072000A0EEB0E08C9181608C9380818F77808384
:1007300019BCA7EDB0E08C918E7F8C9380818F7E69
:1007400080831092A70408952091E4003091E50081
:1007500095E6A9012091EC00822F817020FF06C050
:100760008091E80080FF06C080E008952091E800B5
:1007700022FD1AC08091CC04882389F0853089F04D
:100780008091EB0085FD0FC02091E4003091E500E1
:1007900042175307F9F29150E1F684E0089582E0A0
:1007A000089583E0089581E00895EF92FF920F93FA
:1007B0001F93CF937C018B010E94A403C82F81114A
:1007C00017C08091E80085FD0BC08091E8008E770E
:1007D0008093E8000E94A403882399F3C82F08C0DF
:1007E000F70181917F018093F1000150110949F7D0
:1007F0008C2FCF911F910F91FF90EF9008958091D2
:10080000CE0487FF13C08091E80082FF06C080916C
:10081000E8008B778093E80004C08091CC048111BC
:10082000F2CF08958091CC048823D9F38091E80019
:1008300080FFF8CF8091E8008E77ECCF982F9093CF
:10084000E900242F762F50E0891731F07091EC00E9
:100850002091ED005091F00021FD07C09F5F97307F
:1008600071F78093E90081E008953091EB003E7FBD
:100870003093EB003091ED003D7F3093ED003091EF
:10088000EB0031603093EB007093EC002093ED00AF
:100890005093F0002091EE0027FDE0CF80E0089516
:1008A000CF92DF92EF92FF920F931F93CF93DF933C
:1008B000C8EDD0E088818F7E8883E7EDF0E080810D
:1008C0008160808384E082BF81E08093A704888177
:1008D0008E7F888302EE10E0F80110821092DA0019
:1008E00081EEC82ED12CF601108288818F77888303
:1008F00088818068888388818F7D888319BC109265
:10090000CC041092CD041092CB041092CA0490EE45
:10091000E92EF12CF70180818B7F808388818160B3
:10092000888342E060E080E00E941E04F60180813E
:100930008E7F8083F80180818160808380818860E0
:100940008083F70180818E7F8083888180618883A6
:10095000DF91CF911F910F91FF90EF90DF90CF909B
:100960000895FC018091D4049091D50486179707CF
:10097000A0F06115710529F49091E8009E7790939D
:10098000E80090E06115710551F4911108C0809163
:10099000E80082FF34C080E00895BC01F2CF80916E
:1009A000CC048823C1F18530C1F18091E80083FD3A
:1009B00030C08091E80082FDEACF8091E80080FF9E
:1009C000E1CF8091F3002091F200382F611571057D
:1009D00019F02830310558F091E02830310509F040
:1009E00090E02091E8002E772093E800CBCF819112
:1009F0008093F100615071092F5F3F4FE7CF8091E5
:100A0000CC04882341F0853041F08091E80083FFD9
:100A1000BECF81E0089582E0089583E008950895AF
:100A20008091A90408959C014FB7F89480919E0489
:100A300090919F04A091A004B091A1044FBF821B8C
:100A4000930B08952FB7F89480919E0490919F0482
:100A5000A091A004B091A1042FBF0895209113018B
:100A60002223C9F02091A20427FF15C0E62FE695A6
:100A7000E695E695EE31D8F4E80FF92FF11D677091
:100A800021E030E001C0220F6A95EAF720958281CB
:100A9000282322830895FC0132960896219162133F
:100AA00003C0DF0111971C92E817F907B9F7089501
:100AB000209113012223C1F02091A20427FF14C02A
:100AC000E62FE695E695E695EE31F8F4E80FF92F76
:100AD000F11D677021E030E001C0220F6A95EAF74E
:100AE0008281822B82830895FC0132962FEF30E0C1
:100AF0004191641751F02F3F19F4411101C0232F88
:100B00003F5F3630A9F72F3F09F40895820F911DFA
:100B100027FD9A95FC016283089520919B043091F2
:100B20009C042817390771F090939C0480939B04D0
:100B3000E0919904F0919A04309721F00084F185B6
:100B4000E02D099408952091970430919804281776
:100B5000390771F09093980480939704E091990479
:100B6000F0919A04309721F00680F781E02D0994E6
:100B70000895E0919904F0919A04309721F0019042
:100B8000F081E02D099480E00895FA01811101C0FF
:100B9000FB010994EDEAF3E081836083428333969D
:100BA00094E0E739F907C1F70895FC01EE0FFF1F44
:100BB000E80FF91FE355FC4F6183408322830895BA
:100BC000EAEDF4E0248130E1231B08F420E02483E3
:100BD0008091AC0381608093AC030895EAEDF4E06A
:100BE000248130E1230F08F42FEF24838091AC039C
:100BF00081608093AC0308959091DA04937071F052
:100C00008093DB046093DC04453B08F044EB4093A5
:100C1000DD048091AC03822B8093AC030895EAED50
:100C2000F4E0438120E1421B08F440E0818121E0AF
:100C3000628190E00C94FC05EAEDF4E0438120E150
:100C4000420F08F44FEF818121E0628190E00C9423
:100C5000FC05EAEDF4E0628120E1621B08F460E04B
:100C6000818121E0438190E00C94FC05EAEDF4E001
:100C7000628120E1620F08F46FEF818121E04381FE
:100C800090E00C94FC05EAEDF4E0818121E04381E1
:100C900062818850990B0C94FC05EAEDF4E08181A7
:100CA00090E021E04381628108960C94FC059091CC
:100CB000DA04937061F081110BC094609093DA04B0
:100CC000109212018091AC03862B8093AC0308959F
:100CD000883210F09C69F2CF880F880F982BEECFE6
:100CE0008091DA0486958695815009F487E261E067
:100CF0000C9457068091DA04869586958F5F88322A
:100D000008F081E061E00C9457068091DA0483706A
:100D100011F4109212018091DA048C7F816080932B
:100D2000DA040895EF92FF920F939701201B310987
:100D30002F3F310519F010F02FEF30E02095382FBC
:100D4000320F08F43FEF832F0F91FF90EF9008953B
:100D5000EF92FF920F939701201B31092F3F31052E
:100D600019F010F02FEF30E0322F3095482F430F5D
:100D700008F44FEF842F620F0F91FF90EF900895CA
:100D8000EF92FF920F93972F093438F4B701601B4D
:100D900071096F3F710519F010F06FEF70E0485F57
:100DA0005F4F4131510540F0A901485F5F4F41312C
:100DB000510510F06FEF70E06095482F460F08F472
:100DC0004FEF842F37FF02C02D5F3F4F359527959A
:100DD000359527956091DB04620F792F0F91FF9075
:100DE000EF900895EF92FF920F931F930E0D1F2D1A
:100DF000111DF90137FF03C0F195E195F10924E0D8
:100E0000EE0FFF1F2A95E1F7EF3FF10519F014F0FF
:100E1000EFEFF0E09A0157FF03C0319521953109BA
:100E200094E0220F331F9A95E1F72E173F070CF439
:100E3000F901E00FF11FEF3FF10519F010F0EFEFAE
:100E4000F0E0E095282F3E2F230F08F42FEF822F9C
:100E50001F910F91FF90EF900895EF92FF920F93E3
:100E6000970195E0099F200D311D11242F3F310579
:100E700019F010F02FEF30E02095382F320F08F4E2
:100E80003FEF832F0F91FF90EF90089522E8241BEE
:100E900008F420E0620F08954095282F429F412DCD
:100EA0001124842F0895E42FF0E0EE0FFF1FEF537D
:100EB000FE4F9081921B97FD9195292F38E1239F3A
:100EC000212D1124620F08950F931F9310E0F80154
:100ED000EE0FFF1FEF53FE4F9081905797FD9195B6
:100EE000000F111FF801EE53FE4F00810052110B4D
:100EF0002003F001219FF00D112408E310E0091BED
:100F0000110997FD139540039001419F300D112465
:100F1000E20FF31F9F01220F331F2E0F3F1F37FFDA
:100F200002C021583F4F220F232F221F330B620F85
:100F30001F910F9108950F931F93522F10E0F80106
:100F4000EE0FFF1FEE53FE4FA081A052BB0B9D0181
:100F50005203F001539FF00D1124000F111FD8010F
:100F6000AF53BE4F0C910057110B40039001419FAE
:100F7000300D11242E0F3F1F37FF02C0215C3F4F61
:100F800096E0359527959A95E1F7620F1F910F919D
:100F900008950F931F93522F10E0F801EE0FFF1FDB
:100FA000EE53FE4FA081A052BB0B9D015203F001F6
:100FB000539FF00D1124000F111FD801AF53BE4FE6
:100FC0000C910057110B40039001419F300D1124EB
:100FD0002E0F3F1F37FF02C021583F4F220F232FF4
:100FE000221F330B620F1F910F910895EF920F9301
:100FF000972F23E0029FB0011124759567956E0D20
:10100000792F0F91EF900895322F50E0FA01EE0FF3
:10101000FF1FEE53FE4F9081905297FD9195440F24
:10102000551FFA01EF53FE4F2081231B330B290F6D
:10103000311D97FD3A95620F0895E42FF0E0EE0F11
:10104000FF1FEE53FE4F6081621B0895E42FF0E016
:10105000EE0FFF1FEF53FE4F6081621B0895622F5A
:101060000895E42FF0E0EE0FFF1FEF53FE4F408195
:1010700034EE439F412D1124E82FF0E050E0445E10
:101080005F4FDA01A21BB1099D01B7FF03C0319583
:101090002195310993E0220F331F9A95E1F7AF01B3
:1010A000421B530B9A0157FD20E0582F259F212DFD
:1010B0001124822F0895E42FF0E0EE0FFF1FEF536D
:1010C000FE4F408134EE439F412D1124E72FF0E085
:1010D00050E0445E5F4FDA01A21BB1099D01B7FFEA
:1010E00003C031952195310993E0220F331F9A9562
:1010F000E1F7AF01421B530B9A0157FD20E0279FF8
:10110000212D1124722F08950C94CA050C94D50535
:10111000FC019B01009729F480E077FF2BC080E859
:101120000895AC0197FF04C044275527481B590B6D
:10113000B901640F751F37FD10C0241B350BC901A1
:10114000A5E0880F991FAA95E1F70E94072E80E27B
:10115000861BF7FF0FC081950895CB0165E0880FCE
:10116000991F6A95E1F7BA01621B730B0E94072E63
:1011700080E6EECF0895EF920F93CF93DF93D72FB2
:10118000C82FC9010E19BA010E948808602F681B78
:101190007D2F8C2FDF91CF910F91EF9008950F93BA
:1011A000CF93DF93D72FC82FC901BA010E948808B7
:1011B000682F600F7D2F8C2FDF91CF910F910895B5
:1011C000EF920F931F93CF93DF93D62FC72F182F34
:1011D000C9010E19010FBA010E948808081B202FAF
:1011E000219F212D1124822F6D2F7C2FDF91CF91F4
:1011F0001F910F91EF900895EF920F931F93CF934C
:10120000DF93D62F172FC82FC9010E19070FBA0168
:101210000E948808702F781B719F712D11246D2FEB
:101220008C2FDF91CF911F910F91EF9008950F9325
:101230001F93CF93DF93D62FC72F182FC901212FCC
:10124000201B022FBA010E948808982F990F990F2E
:10125000891B800F282F219F212D1124822F6D2F74
:101260007C2FDF91CF911F910F9108950F931F93C2
:10127000CF93DF93D62F172FC82FC901272F201BFD
:10128000022FBA010E948808982F990F990F782F82
:10129000791B700F719F712D11246D2F8C2FDF9191
:1012A000CF911F910F910895E82F86FDE0952E2F85
:1012B0002F7086FD2F5FE695E695E695E670F0E0E7
:1012C000E15AFE4F9181929F902D212D11249295EC
:1012D0009F702295207F922B2081920F87FD919500
:1012E00080E8890F08950F931F93CF93DF938B01AD
:1012F000D82FC42F822F0E945409EC2FF0E0EE0F5C
:10130000FF1FEF53FE4F90819058890F87FD819505
:10131000880F682F2CE0629F612D1124600F712FC0
:101320008D2FDF91CF911F910F910895AC018230E5
:10133000910508F408959FEF413E8EE1580740F46F
:101340009A0195E0369527959A95E1F798E0920FE6
:1013500061E0E62FE90FFF27FF1F9F0135952795D5
:10136000822F229FF001239FF00DF00D11244E17C4
:101370005F0738F49FEF920F961758F78FEF860F9D
:1013800008952F3FE9F361E0620FF6CF0F93CF93FB
:10139000DF93D72FC82F47FD419588E390E0841B4A
:1013A000910947FD9395889FB001899F700D700D3D
:1013B0001124229FC001239F900D900D1124860FB0
:1013C000971F0E949609982F990F890F682F600F19
:1013D0007D2F8C2FDF91CF910F91089530E020E089
:1013E000869F212D969F200D311D1124C90108953E
:1013F000AF92BF92CF92DF92FF920F931F93CF9342
:10140000DF93362F472FE82FF0E0ED55FD4F711198
:101410000FC0E4918E2F2E2F6E2F722FDF91CF9160
:101420001F910F91FF90DF90CF90BF90AF900895E4
:10143000C72FD0E02491F22E022F10E056E0659FD6
:10144000C0011124EFEFF0E0BF010E94F32D832FC4
:1014500090E0880F991F35E5369FD001379FB00D7A
:1014600011248A1B9B0B982F990F980F6F01CC1A90
:10147000DD0AC09ED001C19EB00DD09EB00D1124DA
:101480008B2F499FA0011124452F55276F01C41AA6
:10149000D50AC09EA001C19E500DD09E500D1124B2
:1014A0005F01A91AB108AC9E6001AD9ED00CBC9E34
:1014B000D00C1124CD2CDD24EC19FD09E09FE001B6
:1014C000E19FD00DF09FD00D1124ED2F62307105FA
:1014D000A1F050F46115710509F49ECF61307105DA
:1014E00081F0EB2F852F98CF6430710569F080F083
:1014F0006630710509F490CFF4CFE22F2B2F8D2F9A
:101500008BCFE22F252F88CFEB2F822F2D2F84CF4B
:101510002B2F8F2DE52F80CF2F923F925F926F92CE
:101520007F928F929F92AF92BF92CF92DF92EF9273
:10153000FF920F931F93CF93DF93CDB7DEB72A9718
:101540000FB6F894DEBF0FBECDBF8B837E836D8355
:10155000209114012295207F2F83205F29832A83E5
:101560002F3410F03EE43A838091E0048C83FF81B5
:10157000EF2FF0E0FA87E987CF01880F991F9C01D0
:101580002F533E4F69013B81832F90E0FC01319640
:10159000F887EF838A8199859817E8F081E0E981DF
:1015A000EE3408F080E02A960FB6F894DEBF0FBE46
:1015B000CDBFDF91CF911F910F91FF90EF90DF9002
:1015C000CF90BF90AF909F908F907F906F905F90E3
:1015D0003F902F900895E985FA85E35AFD4F808169
:1015E000909115018923F1F02090DB043090DC0408
:1015F0002F81388520523B4F39015B8010E0FC8100
:101600005F16D0F02091DD04129F112D1124B1013D
:10161000812F0E94F809462F282F672F89859A85E8
:101620000E94860829853A852F5F3F4F3A87298790
:1016300032E0C30ED11CAECFF30181913F01F60120
:10164000A080A81ABB088180F3018781881A9908B5
:10165000AA9C9001AB9C300D300D1124889CC001D8
:10166000899C900D900D1124820F931F0E94960962
:10167000082F6091DE0421E0620F08F46FEFF301A0
:10168000EE0FFF1FE05EF440858996890E94EE0907
:101690007C019401A501B101812FED81FE810995A5
:1016A0001B015394182FABCFCF92DF92EF92FF9292
:1016B0000F931F93CF93DF938C01C0911401C295B8
:1016C000C07F20E1D22EDC0ECD2C2EE42D1510F49F
:1016D0009EE4C92E2091DE0431E0230F08F42FEFA1
:1016E00030E050E040E06FEF7FEF80E090E00E945C
:1016F000F22E7901D0E02C2FCC1570F081E0FDE4C2
:10170000FD1508F480E0DF91CF911F910F91FF90BC
:10171000EF90DF90CF900895FE01E35AFD4F808156
:1017200090911501892311F14091E0044150042E5C
:10173000000C550B47FF1CC0C7016091DE0421E07F
:10174000620F08F46FEF0E94EE09AC016091DB04B8
:101750007091DC048091DD04F80109950E94F8097C
:10176000462F282F672FCE010E9486082196C3CFCF
:10177000FA01E052FB4F818982130AC0FA01EE0F91
:10178000FF1FE052FB4F818D928D8E159F05A8F2B1
:1017900041505109CFCFDF92EF92FF920F931F93E9
:1017A000CF93DF937C01C0911401C295C07F10E1FB
:1017B0001C0F012F1F3408F00EE46091DE046695C3
:1017C000669521E0620F08F46FEF8091D604909146
:1017D000D7040E94EE09D82ED0E0C01760F081E057
:1017E0001E3408F080E0DF91CF911F910F91FF90A0
:1017F000EF90DF900895FE01E35AFD4F80819091B4
:101800001501892391F06091DB047091DC048091D3
:10181000DD042D2D4C2FF70109950E94F809462F64
:10182000282F672FCE010E9486082196D6CF9F923F
:10183000AF92BF92CF92DF92EF92FF920F931F93DE
:10184000CF93DF936C01C0911401C295C07F10E16A
:101850001C0FB12E1F3410F03EE4B32E6091DE0455
:10186000669566958091D6049091D7040E94EE0902
:10187000F82E80E48F0D0E94540990E8A92EA80E3E
:101880008F2D0E94540920E8922E980ED0E0CB159F
:1018900080F081E01E3408F080E0DF91CF911F914D
:1018A0000F91FF90EF90DF90CF90BF90AF909F90FF
:1018B0000895FE01E35AFD4F80819091150189231F
:1018C000A1F06091DB047091DC048091DD04EF2CC9
:1018D0000C2F292D4A2DF60109950E94F809462F53
:1018E000282F672FCE010E9486082196D0CF7F92A5
:1018F0008F929F92AF92BF92CF92DF92EF92FF9220
:101900000F931F93CF93DF935C01C0911401C29595
:10191000C07F10E11C0FF12E1F3410F03EE4F32EB7
:101920006091DE0466958091D6049091D7040E9460
:10193000EE09782ED0E0CF1590F081E01E3408F04B
:1019400080E0DF91CF911F910F91FF90EF90DF909A
:10195000CF90BF90AF909F908F907F900895FE01A1
:10196000E35AFD4F8081909115018923C9F1CE0181
:10197000880F991F8A589E4FFC01E55BFF4F20811D
:10198000422F4057550B6A01845B9F4FFC018081B9
:10199000282F2052330B4901449F9001459F300D61
:1019A000300D1124889CC001899C900D900D11244C
:1019B000820F931F0E949609082F6091DB0470919B
:1019C000DC048091DD04E72C9401A601F501099562
:1019D0000E94F809462F282F672FCE010E94860803
:1019E0002196A9CFCF92DF92EF92FF920F931F9390
:1019F000CF93DF937C01C0911401C295C07F10E1A9
:101A00001C0FD12E1F3410F03EE4D32E6091DE0463
:101A100066958091D6049091D7040E94EE09C82E55
:101A2000D0E0CD1568F081E01E3408F080E0DF9151
:101A3000CF911F910F91FF90EF90DF90CF9008957D
:101A4000FE01E35AFD4F808190911501892311F128
:101A5000CE01880F991F8A589E4FFC01E45BFF4F0F
:101A600020812052330B855B9F4FFC014081405702
:101A7000550B6091DB047091DC048091DD040C2D2A
:101A8000F70109950E94F809462F282F672FCE01EC
:101A90000E9486082196C5CF0E9422059C01909144
:101AA000760380917703982B21F030937303209372
:101AB00072039091780380917903982B21F03093F1
:101AC000710320937003E0919904F0919A04309788
:101AD00049F082E0809374030480F581E02D84E76F
:101AE00093E00994089540917603803F59F48091E2
:101AF000770387FF0DC01092770341110BC010923E
:101B00006E0308C0813F81F48091770318169CF31F
:101B1000442381F08091780390917903892B09F017
:101B20005AC010926D030895823F49F447FFF0CFE9
:101B300010927603809177038111ECCFE0CF833F41
:101B400019F41416ACF3E4CF90917803893F29F48B
:101B50001916F4F610927803DBCF8A3F19F497FF39
:101B6000D7CFF8CF909179038B3F29F497FFD0CF4F
:101B700010927903CDCF8C3F19F41916CCF3C8CF4E
:101B80009CE0980F953090F4845F990B21E030E051
:101B9000B90102C0660F771F8A95E2F7CB018095E5
:101BA00090917503892380937503B2CF8D3F31F4F3
:101BB00080916F038E7F80936F03AACF8E3F21F4B5
:101BC00080916F038D7FF7CF8F3F09F0A1CF809178
:101BD0006F038B7FF0CF089580916F0380FD16C057
:101BE00081FD16C082FD16C080916D038823A1F08F
:101BF000883280F428E0829FC001112468E270E0FE
:101C00000E94072E862F672B39F0089582E00895F1
:101C100084E0089588E0089581E0089580916F033D
:101C200080FD14C081FD14C082FD16C080916E033A
:101C3000882381F08E3180F420E5829FC001112439
:101C40006EE170E00E94072E862F089584E10895CA
:101C500088E2089588E0089580E50895803F31F492
:101C60000E940E0E8195809377030895813F19F4A9
:101C70000E940E0EF8CF823F31F40E940E0E819525
:101C8000809376030895833F19F40E940E0EF8CFD7
:101C9000893F29F40E94EC0D8093780308958A3FD0
:101CA00021F40E94EC0D8195F7CF8B3F31F40E9417
:101CB000EC0D81958093790308958C3F19F40E946F
:101CC000EC0DF8CF9CE0980F953070F4845F990B81
:101CD00021E030E001C0220F8A95EAF78091750378
:101CE000822B8093750308958D3F31F480916F03AB
:101CF000816080936F0308958E3F21F480916F037C
:101D00008260F7CF8F3FB9F780916F038460F1CF86
:101D100080E00895F894E82FE295EF70F0E031A1AB
:101D2000282F2F7081E090E001C0880F2A95EAF7F4
:101D3000982F9095932391A392A1892B82A37894B5
:101D400008959091A20492FF06C0282F2871283090
:101D5000F9F4877F846093FF06C0282F287128310B
:101D6000F1F4877E84612091A30420FF06C0382F00
:101D700038713830D9F4877F816021FF06C0282F61
:101D800028712831D1F4877E816194FD877E089582
:101D9000282F24712430F9F68B7F8860DCCF282F20
:101DA0002471243101F78B7E8861DDCF382F3171AA
:101DB000313019F78E7F8860E0CF282F21712131D3
:101DC00021F78E7E8861E1CFCF93DF93EC018238DB
:101DD0009105A9F1D8F58133910509F496C048F52C
:101DE0008932910509F48AC08A9709F495C0C11512
:101DF00021E5D20708F0BCC0C11530E5D30708F0D3
:101E000014C1C83ED10508F09CC0C03ED10560F5A4
:101E1000C83AD10508F087C0C53AD10508F0FDC021
:101E2000C130D10509F12097F9F0C430D105E0F4B3
:101E300040C08533910509F45AC0C997C1F6809115
:101E4000A204837089F0C0EED0E00EC0833E9105FD
:101E500099F170F4803E910501F1823E910539F6C9
:101E60008091A20482FD21C0CE01DF91CF9108951F
:101E7000863E910561F1873E910571F1843E9105A1
:101E800009F0B5CF8091A30481FFEECF8091A20429
:101E9000C7EED0E084FD0DC0E7CF8091A20480FDA5
:101EA00012C19091A30490FFDFCFC3EED0E084FF76
:101EB000DBCFD0E0C0E0D8CF8091A20482FD06C184
:101EC0009091A30490FDBFCF84FFCECFF2CF80913D
:101ED000A20483FDDDCFC8CF8091A20483FDF9C0A9
:101EE0009091A30491FFF0CFC4EED0E0BDCF8091DC
:101EF000A20485FFB9CFC9E2D0E0B6CF8091A20499
:101F000085FFB2CFC5E3D0E0AFCF8091A20486FFBA
:101F1000ABCFCAE2D0E0A8CF8091A20486FFA4CFC5
:101F2000C1E3D0E0A1CFCF3BD10518F6C85AD0E02D
:101F3000CC0FDD1FC35EDE4F0990D881C02DD46465
:101F400093CFC11540E2D40758F4C11581E0D807FA
:101F500008F08ACFC03FD10508F4ABCFD06584CF5D
:101F6000C11590E4D90708F4A4CFDF70D06A7CCF04
:101F7000C11525E5D20700F5C11534E5D30708F0F2
:101F80008AC0C11543E5D40708F071C0C11582E5C8
:101F9000D80708F467C0CE018370992721E030E0AC
:101FA00002C0220F331F8A95E2F7C695C69580E2DC
:101FB000C89FE001112452C0C11599E5D907A8F4C2
:101FC000C11528E5D20708F06BC0C11536E5D30767
:101FD00008F06FCF8C2F0E94A10EC82FD0E0DC2F0D
:101FE000CC27CC27DF71D0623FCFC1154AE5D4079B
:101FF00008F45BC0CE0190568115904208F059CF8D
:102000008D2F8F710E94A10E90E0982F882788272E
:102010009F719C012C2BE901E6CFC55AD0E0C65E2A
:10202000DE4FC881D0E0D0641FCFCE01E4E09695AA
:102030008795EA95E1F783702C2F269526952370D6
:1020400040E2249F90011124382B8C2F8370C1E033
:10205000D0E002C0CC0FDD1F8A95E2F7C22BD32B54
:10206000DC6802CFDC2FCC27C16FD06AFDCECE0159
:102070008370992721E030E002C0220F331F8A9538
:10208000E2F7C695C69590E2C99FE0011124C22BE4
:10209000D32BDA68E9CEDC2FCC27C46FD06AE4CE2C
:1020A000DC2FCC27C06FD06ADFCE8C2F8F700E94C0
:1020B000A10E34E0D695C7953A95E1F7CF709C2FE5
:1020C000EC01D069D1CEC9E3D0E0CECEC2EED0E0F3
:1020D000CBCEC6EED0E0C8CE8091480381111092DD
:1020E0004803089580959091470398239093470360
:1020F0000895809124039091F302981301C00895EC
:102100008F5F8770FACF2FE0929F800D1124982F58
:10211000977086958695869523E0829FF00111241D
:10212000E153FD4F50E040E080E0219130E0092E86
:1021300002C0369527950A94E2F721703327042EC2
:1021400001C0220F0A94EAF7822B4F5F5F4F4330A2
:10215000510559F708952FE0929F800D1124982F73
:10216000977041E001C0440F9A95EAF786958695ED
:10217000869593E0899FF0011124E153FD4F90E093
:1021800080E070E05191DF0111979B01082E02C0A1
:10219000369527950A94E2F7217021952527242367
:1021A00025272C9301968330910561F7089580933C
:1021B000A4047093A6046093A5048091CC04843099
:1021C000F9F48093E9008FEF9091E800815095FD3C
:1021D00006C095ED9A95F1F700008111F5CF809139
:1021E000E80085FF0DC050E040E063E070E084EA65
:1021F00094E00E94D5038091E8008E778093E800F8
:102200000895BC0184E00C94D710BC0183E00C94C9
:10221000D7109C0184E08093E9009FEF8091E80053
:10222000915085FD06C085ED8A95F1F7000091116A
:10223000F5CF8091E80085FF0CC050E040E066E0FB
:1022400070E0C9010E94D5038091E8008E778093E9
:10225000E8000895CF93DF93EC0180911301882368
:10226000B1F18091A20487FF32C060E284E08093E4
:10227000E9008FEF9091E800815095FD06C095ED43
:102280009A95F1F700008111F5CF8091E80085FF64
:102290001BC08091130170E050E040E0811104C048
:1022A00050E040E068E070E0CE010E94D5038091EC
:1022B000E8008E778093E80080E2FE01AAEAB4E0AD
:1022C00001900D928A95E1F7DF91CF91089568E032
:1022D00081E0CDCF81E08093E00080E28093D80060
:1022E0001092C9008FE19EE40197F1F700C0000051
:1022F00087E090EBDC0180930D0590930E05A09391
:102300000F05B093100588E19CE00FB6F894A895EE
:10231000809360000FBE90936000FFCF809A31B32E
:102320003E7F21B321604FB7F8948DEA93E0FC0122
:102330005191CF0168E021BB000000C057FF31BBC5
:10234000550F000000C000C000C031BB00C06A953E
:1023500091F7F4E087399F0751F74FBF8FE594E07D
:102360000197F1F700C000000895CF93DF93CFE706
:10237000D2E060E0CE010E94CE2E2196C11584E00D
:10238000D807B9F7DF91CF9108956F927F928F921E
:102390009F92AF92BF92CF92DF92EF92FF920F93F4
:1023A0001F93CF93DF9383EAC82E83E0D82E9BED53
:1023B000E92EF12CE701C659D10936011BC0F50100
:1023C00085909490692DC8010E94CE2E682DC80179
:1023D00001960E94CE2E82E0A80EB11C0E5F1F4F08
:1023E000C017D10761F78EE1680E711C6E96CE158D
:1023F000DF0529F08E010E5111095301E0CF7E0156
:1024000086E9E80EF11C86E9C80ED11C83E3E816C4
:1024100083E0F80679F6DF91CF911F910F91FF903D
:10242000EF90DF90CF90BF90AF909F908F907F9074
:102430006F900895CF93C82F6FEF811163E283E20D
:1024400090E00E94CE2E6FEFC11163E084E290E035
:102450000E94CE2E6FEFC11164E285E290E0CF9131
:102460000C94CE2E80E00E941A1260E086E290E08A
:102470000E94CE2E0E94C5110E94B51181E00C94DD
:102480001A120F931F93CF93DF93C42FD0E0CC0F7A
:10249000DD1F2EE1629FC00DD11D112436E9839FFF
:1024A000C00DD11D1124CE0187960E94AA2E082F9F
:1024B00010E0102F0027CE0188960E94AA2E9801C6
:1024C000282BC901DF91CF911F910F910895462FBD
:1024D000843038F4753028F46F3018F4672F0C947A
:1024E000411290E080E00895CF92DF92FF920F9327
:1024F0001F93CF93DF936C0100910C0580914903EA
:10250000082BC7E0D0E010E0FC2EC8010C2E02C062
:10251000959587950A94E2F780FD0CC02197A0F766
:10252000F12C8F2DDF91CF911F910F91FF90DF90B4
:10253000CF900895B6018C2F0E9467120E94E40E7E
:10254000019761F3EECFCF93DF93EC010E947412F9
:10255000BE010E946712DF91CF910C94E40EFC0142
:10256000808191810E94A31292959F70963091F084
:1025700058F4925F9F70923058F4803F19F030F415
:10258000883E30F481E008959A5FF4CF843FD1F320
:1025900080E00895883EB0F3813FD1F7F3CF83E226
:1025A00090E00E94AA2E833289F484E290E00E9497
:1025B000AA2E833059F485E290E00E94AA2E91E081
:1025C000843209F090E0892F8170089580E0FCCF7B
:1025D000CF9384E090E00E94AA2EC82F82E290E080
:1025E0000E94AA2E982F8C2FCF9108951F93CF93DE
:1025F000DF93EC01FC01E35AFD4F80816823C9F0B1
:102600000E94742E182F0E94742E8F77782F20E846
:10261000720F08F47FEF612F8091DD040E94F809AA
:10262000462F282F672FCE01DF91CF911F910C9459
:102630008608DF91CF911F910895DF92EF92FF926C
:102640000F931F93CF93DF938C01FC01E35AFD4F4F
:102650008081682381F1D090DC04D091DD04C091A9
:10266000DB04EC2EF12C0E94742E282FC7018C5411
:102670009F4F68E671E00E94072E8E199F0997FD13
:102680000396959587959595879523706C2F289F30
:10269000600D11247D2D8D2F0E94F809462F282FC3
:1026A000672FC801DF91CF911F910F91FF90EF909D
:1026B000DF900C948608DF91CF911F910F91FF90CE
:1026C000EF90DF9008959F92AF92BF92CF92DF92EA
:1026D000EF92FF920F931F93CF93DF93182F809168
:1026E0001101811323C09091DA049370209110019D
:1026F00030E081E09217130609F480E08170809346
:1027000016018091DF0490911501981739F080939C
:10271000150140E060E080E00E948408183260F417
:10272000E12FF0E0E95AF04D0C941B2E81E0E6CF4A
:1027300080911601811102C0C0E08DC140E060E0CF
:1027400080E00E948408F8CFC0911401C295C07F38
:1027500000E10C0FF02E0F3410F0AEE4FA2E609171
:10276000DB047091DC048091DD040E94F809E62E00
:10277000D72EC82ED0E0CF1528F0C1E00E3408F4D3
:102780006AC1DACFFE01E35AFD4F808190911501B5
:10279000892331F02C2D4E2D6D2DCE010E948608FF
:1027A0002196E9CFC0911401C295C07F00E10C0FC2
:1027B000F02E0F3410F0FEE4FF2ED090DC04E090F9
:1027C000DD04D091DB046D2F7D2D8E2D0E94F80944
:1027D000C62EB72EA82E6091DE046D0F7D2D8E2D96
:1027E0000E94F809E62ED72E982ED0E0CF1528F6B5
:1027F000FE01E35AFD4F908180911501892359F024
:10280000292D4E2D6D2D90FD03C02A2D4C2D6B2DA5
:10281000CE010E9486082196E9CFC0911401C2958D
:10282000C07F00E10C0FE02E0F3410F0EEE4EE2E2E
:10283000D090DC04C090DD042091DE0470E4F72E1B
:102840003F2D329F312D1124F32ED0E0CE1508F00C
:1028500094CFFE01E35AFD4F8081909115018923A9
:10286000B9F0FE01EE0FFF1FEE53FE4F80818295FF
:102870008F706091DB048F9D600D11247D2D8C2D58
:102880000E94F809462F282F672FCE010E94860844
:102890002196DCCFC0911401C295C07F00E10C0FDE
:1028A000E02E0F3410F05EE4E52ED090DC04C090F2
:1028B000DD042091DE0440E4F42E3F2D329F312DC3
:1028C0001124F32ED0E0CE1508F057CFFE01E35AC5
:1028D000FD4F8081909115018923D9F0FE01EE0F03
:1028E000FF1FEF53FE4F6081F69EB001112435E0CB
:1028F000759567953A95E1F78091DB04680F7D2D1A
:102900008C2D0E94F809462F282F672FCE010E9498
:1029100086082196D8CFC0911401C295C07F00E1EE
:102920000C0FF02E0F3410F09EE4F92EE090DB0433
:10293000D091DC04D090DD046091DE04669566954C
:1029400066958091D6049091D7040E94EE090E946A
:102950005409805887FD8195880F282F3D2D239F8E
:10296000212D1124822F6E2D7D2F0E94F809E62E35
:10297000D72EC82ED0E0CF1508F0FFCEFE01E35AC7
:10298000FD4F808190911501892331F02C2D4E2D22
:102990006D2DCE010E9486082196EDCF8BE598E043
:1029A0000E94CB0B07C081E398E0FACF86E399E061
:1029B0000E94F20CC82F4FC087E199E0F9CF8CEF4D
:1029C00098E00E94770CF6CF80EE98E0FACF8FE285
:1029D00098E0E6CF86E298E0E3CF8DE198E0E0CFA3
:1029E00084E098E0DDCF86EF97E0EBCF86EC99E0CE
:1029F000DFCF8FEC98E0DCCF8BEB98E0E2CF89EC77
:102A000097E00E94170CD6CF8BE997E0FACF84E6C7
:102A100097E0F7CFC0911601C1113CC06091DE0470
:102A200020E1620F08F46FEF8091D6049091D704F3
:102A30000E94EE096AE070E00E94F32D892B09F0F4
:102A40007BCE0E94742E6EE470E00E94072E60918F
:102A500015010E941D13809114018F5F8093140152
:102A6000C1110CC082E08093120180911601811186
:102A700005C0111103C083E080931201DF91CF9153
:102A80001F910F91FF90EF90DF90CF90BF90AF908C
:102A90009F900895C0911401C295C07F00E10C0F72
:102AA000802F0F3408F08EE4D0E0E82EF12CCE1504
:102AB000DF050CF062CE60911501CE010E941D135E
:102AC0002196F5CFC0911601C1111EC06091DE04A0
:102AD00020E1620F08F46FEF8091D6049091D70443
:102AE0000E94EE0965E070E00E94F32D892B09F049
:102AF00023CE0E94742E6EE470E00E94072E609137
:102B000015010E94F612A7CFC0911401C295C07F93
:102B100000E10C0F802F0F3408F08EE4D0E0E82E97
:102B2000F12CCE15DF050CF028CE60911501CE01F9
:102B30000E94F6122196F5CFC0911401C295C07F74
:102B400000E10C0FF02E0F3410F08EE4F82ED09030
:102B5000DC04E090DD04D091DB046091DE04669536
:102B6000669566958091D6049091D7040E94EE09EF
:102B70000E945409805887FD8195880F682F2CE0AA
:102B8000629F612D11246D0F7D2D8E2D0E94F809FD
:102B9000E62ED72EC82ED0E0CF1508F0EECDFE01E0
:102BA000E35AFD4F808190911501892331F02C2D3E
:102BB0004E2D6D2DCE010E9486082196EDCF83E724
:102BC00099E0EECE83E597E0EBCE8CE497E00E94AF
:102BD000540BF0CE86E497E0FACF8091E00421E038
:102BE000382F321B08F430E0832F6DE277E00E942B
:102BF0008C0AE0CE6DE277E080E0F9CF8091E004CE
:102C000021E0382F321B08F430E0832F62EF76E0AA
:102C1000EECF62EF76E0F0CF8091E00421E0382F34
:102C2000321B08F430E0832F60EC76E0E0CF60ECFC
:102C300076E0E2CF8091E00421E0382F321B08F4E7
:102C400030E0832F68EA76E0D2CF68EA76E0D4CF2E
:102C50008091E00421E0382F321B08F430E0832F0C
:102C600062E976E0C4CF62E976E0C6CF46E050E0A4
:102C70006CE170E08AED94E00E94BE2E1092AC03ED
:102C800008958F929F92AF92BF92CF92DF92EF9270
:102C9000FF921F93CF93DF938091A3039091A4039E
:102CA000A091A503B091A6032FB7F89480909E043D
:102CB00090909F04A090A004B090A1042FBF750134
:102CC0006401C81AD90AEA0AFB0A2FB7F89440919E
:102CD0009E0450919F046091A0047091A1042FBFA5
:102CE0004093A3035093A4036093A5037093A6039A
:102CF00010917A03EAE7F3E0C12FD0E00197AF4FDC
:102D0000BF4F88199909AA09BB091D1327C0C09391
:102D10007A038091AB03C0E0811108C08091DA048E
:102D2000C82FC37019F0C82FC695C695809112019F
:102D30008130F1F1882329F1823009F469C08330B0
:102D400009F471C0DF91CF911F91FF90EF90DF9058
:102D5000CF90BF90AF909F908F900895218D328D2E
:102D60004901B12CA12C88159905AA05BB0520F4B1
:102D7000C150DF5F3296C9CF2C0D3D1D328F218FA0
:102D8000F8CF109214014093D6045093D704609367
:102D9000D8047093D90489E2EAE7F3E0A0EEB4E046
:102DA00001900D928A95E1F781E080931201CACFDC
:102DB0008C2F0E946313CC2329F20E94B90581FF56
:102DC0001FC06091DD046830B8F06C3AB8F48091AF
:102DD000A70380FF685F262F462F85E290E0DF91F2
:102DE000CF911F91FF90EF90DF90CF90BF90AF9069
:102DF0009F908F900C94860868E0EDCF64EBEBCF4A
:102E00008091A70380FF9ECF20E040E060E0E5CF07
:102E1000C09311018091DA048370809310010E94A5
:102E20008E1183E0C2CF8091AC0381110E943616CF
:102E30004091D6045091D7046091D8047091D90480
:102E40002FB7F89480919E0490919F04A091A004C4
:102E5000B091A1042FBF841B950BA60BB70B409715
:102E6000A105B10508F46ECF109212016BCFEAED07
:102E7000F4E085E380838091170190911801A0917F
:102E8000190181839283A3838FE784838FEF8583E6
:102E90000C9436164F925F926F927F928F929F9210
:102EA000AF92BF92CF92DF92EF92FF920F931F9358
:102EB000CF93DF93CDB7DEB72A970FB6F894DEBF76
:102EC0000FBECDBF8E010F5F1F4F8AE0F801119238
:102ED0008A95E9F79BE4E92E91E0F92E680120E557
:102EE000422E21E0522E66246394712C4FE5842EED
:102EF00041E0942EF70181917F018F3F09F445C095
:102F0000F894E82FE295EF70F0E021A18F70A30113
:102F100002C0440F551F8A95E2F7CA01922F982BE1
:102F200091A392A18095892382A3789400C0E0E5C3
:102F3000F1E021E030E0B12CA12C41914F3F09F4A8
:102F40007EC0A42FA295AF70B0E090968C9190E0D7
:102F50004F7002C0959587954A95E2F780FD6FC046
:102F6000C901A82AB92A220F331F8E169F0629F7F6
:102F7000F701319780818F3F11F00E948A0E50EA4D
:102F80005A95F1F7F601B182A082F2E0CF0ED11C82
:102F90004E145F0409F0AECF4AE050E0B8018DE472
:102FA00093E00E94842EFF24F394009709F4F12CFF
:102FB000892B09F447C08AE0F801ADE4B3E0019041
:102FC0000D928A95E1F781E080934C030E942205DF
:102FD00090934B0380934A0380914A0390914B0353
:102FE0000E941305059790F180914D0390914E0337
:102FF000909364038093630380914F0390915003F7
:1030000090936603809365038091510390915203DE
:1030100090936803809367038091530390915403C6
:1030200090936A03809369038091550390915603AE
:1030300090936C0380936B0310924C0307C090E055
:1030400080E08FCF80914C038111C6CF8F2D2A96BF
:103050000FB6F894DEBF0FBECDBFDF91CF911F91A9
:103060000F91FF90EF90DF90CF90BF90AF909F9027
:103070008F907F906F905F904F900895809147035D
:1030800090914603892B8093AE0290914803992337
:10309000A1F0892B8093AE02809113018823D9F18E
:1030A0008091A20487FF37C08EE1E0EBF2E090E070
:1030B000815098F591110E946C1040E250E066E258
:1030C00073E08EEA92E00E94842E892B59F180E20F
:1030D000EEEAF2E0A6E2B3E001900D928A95E1F704
:1030E000E0919904F0919A043097E1F080911301F6
:1030F000882359F08091A20487FF07C08091AE0217
:103100008093AF0286E08093AE020280F381E02DCF
:103110008EEA92E0099486E0C8CF2191222341F201
:103120009F5FC6CF089590E080E00E94A30590E0E5
:1031300080E00E948D05109246030E943E1886E0B2
:10314000E4E7F3E0DF011D928A95E9F710926E0340
:1031500010926D0310926F030C944C0D80930C052C
:103160000C94931880910C05982F9670963019F452
:1031700088600C94AE18877FFCCF21E030E001C05E
:10318000220F8A95EAF7209580910C0582230C94F2
:10319000AE18909125038095892380932503282FCD
:1031A000277091F4282F082E000C330B921713066A
:1031B00059F09091A30492FD07C08595859585955A
:1031C0000E94BD18109225030895CF93C091A304C7
:1031D000C2FB992790F9981799F080FBC2F9C09328
:1031E000A3046091A20484E090E00E94CE2E6C2F94
:1031F00082E290E00E94CE2E82E0CF910C94C9181A
:10320000CF91089521E030E001C0220F8A95EAF7BE
:1032100080910C05822B0C94AE18809349030C947A
:1032200093181092470380911301E0EBF2E088239A
:1032300059F08091A20487FF07C08EE1DF011D9243
:103240008A95E9F70C94931886E0F8CF1F93CF93F3
:10325000DF93CDB7DEB7AA970FB6F894DEBF0FBEE7
:10326000CDBF8EEC94E02091F100DC012D93CD01D7
:10327000B4E0863D9B07B9F78091CF04833009F411
:1032800072C0B8F4813009F449C0823009F4B3C087
:103290008091E80083FF8BC28091CE049091CF048F
:1032A0009A3008F084C2E92FF0E0E158F04D0C9418
:1032B0001B2E8A3009F48EC08B3009F471C089301E
:1032C00039F78091CE04813219F78091D204909120
:1032D000D304009711F00297D9F68091E800877F18
:1032E0008093E8008091E80082FF38C09091F3005D
:1032F0008091F200029731F48091F100813011F059
:10330000863021F48091F1008093A9048091E80037
:103310008B778093E8000E94FF03BACF8091CE04A0
:10332000813A09F0B5CF8091E800877F8093E8006B
:103330008091D2049091D304892B61F460E28AEAEF
:1033400094E070E00E94B1048091E8008B77809354
:10335000E8009ECF60E090E080E0F3CF8091CC0465
:103360008111C0CF95CF8091CE04813A09F090CFE2
:103370008091D2049091D304892B09F089CF809158
:10338000E800877F8093E8008091E80080FFFCCF11
:10339000809113018093F1008091E8008E77B9CF7E
:1033A0008091CE04813209F073CF8091D204909144
:1033B000D304892B09F06CCF8091E800877F80933C
:1033C000E8000E94FF038091D004809313010E94C3
:1033D00011195ECF8091CE04813209F059CF8091CE
:1033E000E800877F8093E8000E94FF038091D1046A
:1033F0008093A8044DCF8091CE04813A09F048CF44
:103400008091E800877F8093E8008091E80080FF4A
:10341000FCCF8091A804BECF803899F0823809F0A3
:10342000C6C18091D2048F70873008F0C0C18093EC
:10343000E9008091EB0085FB882780F91092E90074
:1034400006C08091CA049091CB0491118260909142
:10345000E800977F9093E8008093F1001092F100CC
:103460008091E8008E779FC1882309F48DC1823056
:1034700009F09DC18091D004811190C18091D20446
:103480008F702FEF280F263008F091C18093E9004C
:103490002091EB0020FF82C1933031F48091EB004A
:1034A00080628093EB007AC19091EB0090619093E1
:1034B000EB0021E030E001C0220F8A95EAF720936B
:1034C000EA001092EA008091EB008860EACF811157
:1034D0006EC11091D0041F778091E3008078812B1A
:1034E0008093E3008091E800877F8093E8000E944A
:1034F000FF038091E80080FFFCCF8091E3008068AB
:103500008093E30082E0111183E08093CC044FC1EB
:103510008058823008F04BC12091D0043091D10402
:103520002C3DE3E03E07A1F583E08A838AE28983AC
:103530004FB7F894DE01139620E03EE051E2E32F0E
:10354000F0E050935700E49120FF03C0E295EF7044
:103550003F5FEF708E2F90E0EA30C0F0C7968D93FA
:103560009D932F5F243159F74FBF8091E800877FEB
:103570008093E8006AE270E0CE0101960E94B104F7
:103580008091E8008B778093E80011C1C096E7CF67
:103590008091D2049091D304432F55274330510595
:1035A00009F44AC078F54130510509F47AC08BE539
:1035B00090E0EBEFF5E04230510509F0F8C02091C2
:1035C000E800277F2093E8002091D4043091D504AF
:1035D0008217930708F49C0140E02115310509F09A
:1035E00065C0411163C08091E80082FDC9CF809120
:1035F000CC04882329F2853019F28091E80083FFFA
:10360000F2CFBECF4132510509F43CC042325105E0
:1036100009F0CDC08330910508F0C9C0FC01EE0F60
:10362000FF1FE659FE4F0190F081E02D89599E4F12
:10363000DC018C9190E01AC0332721303105D1F0A4
:103640002115310561F02230310509F0B0C0E8E6FE
:10365000F6E0E4918E2F90E0E8E6F6E007C0E2E9BC
:10366000F6E0E4918E2F90E0E2E9F6E0009709F4AD
:103670009EC0A5CFE4E7F6E0E4918E2F90E0E4E76A
:10368000F6E0F4CF8330910508F091C0880F991FC0
:10369000FC01E059FE4F0190F081E02D89E090E0BF
:1036A0008ECF82E190E0E6E5F6E089CF8091CC0410
:1036B000882309F465CF853009F462CF8091E80052
:1036C00083FD5ECF8091E80082FD8DCF8091E80080
:1036D00080FF83CF9091F3008091F2002115310596
:1036E00019F08830910550F041E0089709F040E06A
:1036F0008091E8008E778093E8006FCF44914093EB
:10370000F1003196215031090196E8CF803809F057
:103710004EC08091E800877F8093E8008091CD04BF
:103720008093F1009DCE811142C01091D0041230DF
:10373000F0F58091E800877F8093E8001093CD0436
:103740000E94FF03112311F084E005C08091E30083
:1037500087FDFACF81E08093CC0442E061EC81E008
:103760000E941E0442E261EC84E00E941E0442E2D8
:1037700061EC82E00E941E0442E260EC83E00E9461
:103780001E048091CC0413C08091D004813079F460
:1037900081E0933009F080E08093CB041092E9003F
:1037A0008091E800877F8093E8000E94FF0380916A
:1037B000E80083FF0AC08091E800877F8093E800DB
:1037C0008091EB0080628093EB00AA960FB6F8948C
:1037D000DEBF0FBECDBFDF91CF911F91089588232B
:1037E00021F00E9472100C943E180895882339F03D
:1037F00090914703982B909347030C943E1808959B
:10380000882379F19CEF980F913A38F4682F8EEA6B
:1038100092E00E942E050C943E1890E2980F98308A
:1038200050F4877091E001C0990F8A95EAF7892FCB
:103830000E947210F0CF9BE5980F933020F490E037
:1038400080E00C94A30598E5980F973120F490E060
:1038500080E00C948D05803F20F00E94730D0C9445
:103860004C0D0895CF93C82F882309F46FC08CEFB7
:103870008C0F813AC0F580911301882311F180915A
:10388000A20487FF1EC0EC2FE695E695E695F0E0D2
:10389000E255FD4F828190E04C2F477021E030E0EF
:1038A00002C0220F331F4A95E2F782239323892B0C
:1038B00091F06C2F8EEA92E00E942E050E943E1835
:1038C0000AC0E0EBF2E086EB92E02191C21789F3A7
:1038D0008E179F07D1F76C2F8EEA92E00E94580551
:1038E000CF910C943E1880E28C0F883068F4C7703A
:1038F00021E030E001C0220FCA95EAF7809147032A
:10390000822B80934703ECCFEBE5EC0FE33040F4E0
:10391000F0E0E65EFE4F808190E0CF910C94A3052D
:10392000E8E5EC0FE73150F4F0E0EE0FFF1FE35E47
:10393000FE4F80819181CF910C948D05C03F30F076
:103940008C2F0E942E0ECF910C944C0DCF91089588
:103950001F93CF93DF93182FD0E0C0E0893311F489
:10396000C0E5D0E0812F0E94321C209731F4812FD6
:10397000DF91CF911F910C94001C8FE99FE001977C
:10398000F1F700C000002197F0CF0F931F93CF9362
:10399000DF93C62FD42F022FFC0182818823A1F050
:1039A00060930B050E94220590930A0580930905F8
:1039B000C77081E001C0880FCA95EAF7DF91CF9107
:1039C0001F910F910C94F61B80910B05681335C065
:1039D0008091090590910A050E941305883C910584
:1039E00060F510E21D0FCD17B9F080E28C0F883022
:1039F00040F4C77081E001C0880FCA95EAF70E94C1
:103A0000EF1B183048F481E09D2F977001C0880F9C
:103A10009A95EAF70E94F61B802F0E94A81C183086
:103A200098F4D77081E001C0880FDA95EAF7DF914A
:103A3000CF911F910F910C94EF1BC77081E001C0D3
:103A4000880FCA95EAF7F3CFDF91CF911F910F91BD
:103A50000895DF92EF92FF920F931F93CF93DF931E
:103A6000E82FF0E0EC50FE4FD490282F26952695B5
:103A7000269530E0F901EC51FE4F0491877010E07B
:103A8000082E02C0159507950A94E2F701701127D8
:103A9000F901EC52FE4FE490F12C082E02C0F5948F
:103AA000E7940A94E2F791E0E922FF24F901EC534C
:103AB000FE4FC491D0E002C0D595C7958A95E2F734
:103AC000C170DD270115110519F081EE0E94321C2D
:103AD000E114F10419F086EE0E94321C8D2D0E9433
:103AE000A81CEF2819F086EE0E94001C012B19F08B
:103AF00081EE0E94001CCD2B51F08CE2DF91CF9122
:103B00001F910F91FF90EF90DF900C94A81CDF9114
:103B1000CF911F910F91FF90EF90DF90089590E06B
:103B200080E00E94B82E893E9E4F11F40C94CF1273
:103B300080E008959091A703892F8370833051F01E
:103B40008FEF90FD82EF91FD18C08093DF040E94FB
:103B5000850607C01092DF0440E060E080E00E942C
:103B600084084091A7035091A8036091A903709124
:103B7000AA038FE090E00C94E02E8DEFE6CF69EE83
:103B80007EEF90E080E00E94EC2E60E082E090E02A
:103B90000E94CE2E60E083E090E00E94CE2E109234
:103BA000490360E084E090E00E94CE2E60E082E273
:103BB00090E00E94CE2E60E085E090E00E94CE2E44
:103BC00060E086E090E00E94CE2E6FEF87E090E00C
:103BD0000E94CE2E40E050E0BA0188E090E00E94C2
:103BE000E02E60E08DE090E00E94CE2E40E050E0BC
:103BF000BA0188E190E00E94E02E60E087E190E069
:103C00000E94CE2E40E050E0BA018CE190E00E948C
:103C1000E02E70E060E080E290E00E94EC2E40E058
:103C200050E0BA0188E190E00E94E02E80E00E941E
:103C30001A120E94321240E050E0BA018FE090E088
:103C40000E94E02E1092A7031092A8031092A903DD
:103C50001092AA030C949A1D8FE090E00E94B22E5D
:103C60006093A7037093A8038093A9039093AA037A
:103C70000C949A1D8F929F92AF92BF92CF92DF9237
:103C8000EF92FF920F931F93CF93DF9300D000D05A
:103C90000F92CDB7DEB77C01FC0183819481892B23
:103CA00031F08081918189238F3F09F098C50F9071
:103CB0000F900F900F900F90DF91CF911F910F9168
:103CC000FF90EF90DF90CF90BF90AF909F908F903C
:103CD00008950E947412182F682F89819A810E947A
:103CE000AB1069817A81812F0E9467128C01F701E4
:103CF0008281882309F468C5980122513F4520310B
:103D0000310508F02EC58FEF93E00E94AA2E0251D4
:103D10007FE7C72E72E0D72E882371F180912503AB
:103D2000877029F2F7018281882309F4C0CF80913E
:103D3000A30482FDBCCF82E00F900F900F900F90F4
:103D40000F90DF91CF911F910F91FF90EF90DF9037
:103D5000CF90BF90AF909F908F900C94C918C114D2
:103D6000F4E0DF06D9F2C6010E94AA2E811101C03B
:103D700001502FEFC21AD20A0111F1CF1C821B820F
:103D8000BB24B3946AE0A62E86010F5F1F4FC601C5
:103D90000E94AA2E89831A82882309F4BFCF9FEF3D
:103DA000980F933008F58A83B98232E0C30ED11C94
:103DB000C8010E94AA2E8B83882309F4AFCF8E01FD
:103DC0000F5F1F4FF80180818823F1F2813009F0E5
:103DD00043C091818281913049F40E5F1F4F0E9450
:103DE000A81C0F5F1F4FEECF6801E9CF923029F476
:103DF0000E5F1F4F0E94321CF4CF933029F40E5FE8
:103E00001F4F0E94001CEDCF943019F00F5F1F4F21
:103E1000E8CF0E5F1F4F30E020E0B8016F5F7F4FAB
:103E2000F80141818053990B8A30910550F021505F
:103E30003109B8F28FE99FE00197F1F700C0000067
:103E4000F6CFA29EF001A39EF00D11249C012E0F2F
:103E50003F1F842F8B01E1CF0E94291DC2CF81E03B
:103E60000E9402190E94B21859CF81E00E94BD1829
:103E7000F9CF82E0F5CF0338EFE51E07E1F188F1D5
:103E800009382FE5120709F446C0033F3CE5130744
:103E900009F411C108F0AFC0083DECE51E0709F4B4
:103EA00006C1093DFCE51F0709F411C1073D2CE5DA
:103EB000120709F0AFC026E241EE61EEC7010E9491
:103EC000C51C2CCF80FF05C081FD03C08C7F8260A4
:103ED00076C4911102C081FD6FC48091A7038C7FCD
:103EE0006EC4882309F41ACF9091A703892F8E7F7F
:103EF00090FF816064C4882309F410CF9091A703D8
:103F0000892F8D7F91FF82605AC4882309F406CFE0
:103F10000E942C1E03CF909147039111FFCE811177
:103F2000FDCE44E7C42E42E0D42E5AE0B52EF60171
:103F30008491882309F4F2CE813009F04AC08601C9
:103F40000F5F1F4FF8018491813059F40F5F1F4FAD
:103F5000F80184910E94A81C68012FEFC21AD20AAE
:103F6000E6CF823041F486010E5F1F4FF801849145
:103F70000E94321CF1CF833041F486010E5F1F4F47
:103F8000F80184910E94001CE7CF843029F7860154
:103F90000E5F1F4FF801249190E080E0F801319608
:103FA0002053330B2A30310548F00197A8F2EFE98E
:103FB000FFE03197F1F700C00000F7CFB89EA001F5
:103FC000B99E500D1124C901840F951F24918F01B2
:103FD000E5CF0E94291D8601BFCF882309F49ECE1C
:103FE0008FE992E00E948D0599CE882309F496CE40
:103FF00080EA92E0F7CF053F3CE5130709F463C080
:1040000008F45DC027E245EE66EE063FECE51E07CC
:1040100009F454CF882309F4F3C310920B0503303D
:10402000FDE51F0708F056C00A3F2CE5120730F4E3
:10403000C80182509C45449708F056C00E94E8127F
:104040009093A3048093A20401319CE5190709F41D
:1040500021C108F09FC00930FCE51F0709F404C125
:1040600008F06CC005303CE5130709F4F5C008F012
:1040700052C003309CE5190709F4E4C008F0E8C019
:104080008091A204816002301C4509F4DEC0609179
:10409000A2041091A30484E090E00E94CE2E612F30
:1040A00082E290E00E94CE2E0E94111937CE27E2C4
:1040B00045EE65EE03CF26E241EE60EEFFCE27E24D
:1040C00045EE64EEFBCE26E241EE62EEF7CE28E24C
:1040D00041E0EFCF01363DE5130709F4AFCF053AD4
:1040E0008DE5180709F4AACF06312CE5120709F06F
:1040F00096C3809147038A7A91E009F490E0909307
:10410000CE0269E2811165E38EEA92E00E945805D1
:104110000E943E1803CE8091A204806207302CE5F5
:10412000120709F492C08091A204806108301C45F6
:1041300008F48BC08091A204806487C00D308CE5A8
:10414000180709F49BC098F48091A2048E7F0B306D
:10415000ECE51E0709F479C08091A2048C600C3054
:104160001C4508F472C08091A2048D7F6EC08091BE
:10417000A2048F7E0F302CE5120709F466C08091EF
:10418000A204877F00311C4508F45FC08091A2041F
:104190008F7D5BC00D3F8CE5180709F477C050F5A3
:1041A0000531ECE51E0709F47FC098F48091A20464
:1041B000837F03312CE5120709F447C008F46EC071
:1041C0000E9411199091A204892F97FB87F98058BA
:1041D0003CC00B3F8CE5180709F442C008F052C000
:1041E0008091A30481600A3F1C4509F050CF809361
:1041F000A3044DCF0130FDE51F0709F461C090F421
:104200008091A3048C7F0F3F3CE5130781F390F16D
:104210008091A304982F909591708E7F892B90FBAD
:1042200081F9E5CF01369DE5190709F44FC0053A3C
:10423000EDE51E0709F451C002301D4509F027CFF6
:1042400060E03FC08091A20482608093A2041FCFEF
:104250008091A2048460F9CF8091A2048860F5CF98
:104260008091A3048260C3CF0E9411198091A2049F
:104270008068EBCF8091A3048360B9CF8091A204C2
:104280008B7FE3CF8091A3048E7FB1CF8091A30475
:104290008D7FADCF8091A2048F7BD7CF0E94111963
:1042A0008091A2048F77D1CF8091A20482FB9927BD
:1042B00090F921E0922790FB82F990FB83F9C5CF1A
:1042C00061E08EE090E00E94CE2EE1CE9091A204BB
:1042D000892F8F7E94FF8061B8CF9091A204892F9F
:1042E0008E7F90FF8160B1CF40E756E06AE776E0CD
:1042F0000E94C50513CD4AE756E060E776E0F8CFA7
:1043000043E456E06DE476E0F3CF4DE456E063E439
:1043100076E0EECF49E256E066E376E0E9CF46E3A9
:1043200056E069E276E0E4CF4CE156E06FE076E0FB
:10433000DFCF40EE55E06EEE75E0DACF4EEE55E0A1
:1043400060EE75E0D5CF61E081E00E945706E6CCD3
:1043500061E08DE0FACF0E9411193FEF84E39CE009
:10436000315080409040E1F700C000000E946A1187
:1043700081E075C280E073C2C8010E948310D82E0C
:104380007FC2212F2F70C22E107F19F0C29490EFA0
:10439000C922DD20B9F0CC2069F080E2800F88309E
:1043A00010F0811009C080914703C82AC0924703CA
:1043B0000E943E18802F4AC080914603C82AC092AE
:1043C0004603F6CF802F0E94001CCC2009F440C089
:1043D000005E083010F0811004C08C2D0E94721015
:1043E00006C0C09480914603C822C09246030E9432
:1043F0003E182EC0312F3F70C32E107F103219F09F
:10440000C29480EFC822882089F081E0881609F4E0
:1044100078C0DD2009F482C0BB2009F478C0F70120
:10442000858180FFC7CF8F70858371C02091A304E1
:1044300022FF44C0DD20E1F1CC2039F08091470318
:10444000C82AC09247030E943E1880E00E94321C96
:10445000E92DE850FF0B349710F40E94B905AA200B
:1044600009F425CC8091250380FD21CCF70112822F
:104470008595859585950E940219C7010E943A1E6F
:10448000809125038595859585950F900F900F90C8
:104490000F900F90DF91CF911F910F91FF90EF90B0
:1044A000DF90CF90BF90AF909F908F900C94BD18ED
:1044B00080E00E94001CCC2059F28FCFDD20A1F0BB
:1044C000909148038C2D892BB11003C00E94F61BDC
:1044D000BFCFE1E0BE12FACF22FDBACF981709F4A0
:1044E000B7CF80934803B4CFB11006C00E946C10C0
:1044F0008C2D0E94EF1BACCFF1E0BF1609F4A8CFC2
:10450000F5CFDD2031F025E02B1508F4A1CF8C2D5F
:10451000DDCF34E03B1508F49BCFEACFBB2041F35D
:10452000F9E38F1217C12FEF37EE83E021503040AF
:104530008040E1F700C000000DC1812F869586956F
:10454000837061F0813009F083CFC8019370D1107E
:1045500002C090E080E00E948D057ACFC801937080
:10456000D11002C090E080E00E94A30571CF802F9F
:10457000DD2029F00E942E0E0E944C0D69CF0E9472
:10458000730DFACF812F837089F5D11061CF402F41
:10459000429546954770440F440F802F8F70042E2C
:1045A00001C0880F0A94EAF7202F207104FF07C08A
:1045B0002FE030E001C0220F4A95EAF720951695CA
:1045C00016951370123069F050F430914903113090
:1045D00029F0822B83230E940D193ACF832B822B43
:1045E000FACF282B809149038227F5CF8695DD20CD
:1045F00011F0812F8170882309F42ACF402F429532
:1046000046954770440F440F802F8F70042E01C0D1
:10461000880F0A94EAF7202F207104FF07C02FE0CB
:1046200030E001C0220F4A95EAF7209516951695BD
:104630001370123069F050F430910C05113029F0EC
:10464000822B83230E94AE1803CF832B822BFACFB9
:10465000282B80910C058227F5CF1F70DD2029F0D3
:10466000812F0E940219802F31CF802F0E94EF1BD3
:10467000812F0E94BD18ECCE802F92EF8916A9F1F0
:10468000981570F0E0EF8E16D1F0F1EF8F1691F0E3
:10469000DD2009F45AC0B1108DCE812F8F7129C051
:1046A00023EF821649F134EF8312F2CF8091A304F5
:1046B00082FF2DC0812F8F71DD20D9F21AC0DD203D
:1046C00079F084E08B1508F4C3CE1F7181E090E08F
:1046D00001C0880F1A95EAF790910C058927B2CF8F
:1046E00095E09B1508F4B4CEF0CF812F8F71D110D7
:1046F000C0CF0E940219ACCE80E0DD2009F4A2CF29
:104700001F7181E001C0880F1A95EAF79BCFDD2069
:1047100089F01F71812F0E9402198091A30482FDEC
:1047200007C0E8E01E9FC001112483608093250329
:10473000812FDFCF81E00E94C918F1E0FB1508F05E
:1047400087CE82E00E94C91883CEBB2039F089331E
:1047500009F4E9CE802F0E94001C7ACE812F8F7140
:1047600088CF0031FFE51F0709F479CB01312FE530
:10477000120709F47ECB0138EFE51E0709F435CCAA
:1047800008F079CB0E3D2CE5120709F4BECB0038BA
:104790003FE5130709F421CC023C9CE5190709F019
:1047A00074CB882309F4BACA8091A703982F91701B
:1047B00080FD88CB81FD86CB8091A70381608093AB
:1047C000A7030E949A1DAACA00313FE5130709F406
:1047D0004CCB01319FE5190771F682E047CB85E0AC
:1047E000DE01119601900D928A95E1F7F701228181
:1047F00089819A8121116DCA0E948310182F71CA74
:104800000631FCE51F0709F074C08091CE0269E211
:10481000811165E38EEA92E00E942E0579CC0A357B
:104820002DE5120709F4A4CD58F401158CE51807FD
:1048300009F491CD0E3D1C45A1F40E94BF1D6ECA26
:104840000B35EDE51E0709F495CD0C351D4549F4F2
:104850008091A30482FB882780F991E089270E9438
:10486000E518F701828100811181882309F484CD44
:10487000C8010E947412D82E682FC8010E94AB1084
:10488000B8018D2D0E9467120E94E40E8C01882EC3
:10489000F701D280B580B2943FE0B3228091250326
:1048A0008770C1F0AD2CDD20B1F0812F807F803486
:1048B00021F080E2800F883068F08091A30482FDAF
:1048C00009C082E00E94C918809125038770AA243C
:1048D000A3948111A12C912E92942FE09222FBE0BF
:1048E000F91508F4B5CDE92DF0E0E757F04D0C943B
:1048F0001B2E8091470382720A3C2CE5120709F4B3
:1049000013CDA0F5053C9CE5190709F4F9CCC8F4D2
:10491000033CFCE51F0709F4E7CC08F0ECCC023CB3
:104920001C4509F09ECF8091DA0491E0892780939D
:10493000DA04109212018091AC0381608093AC0381
:10494000EDC9073C9CE5190709F4E4CC08F4DDCC7B
:10495000083CFCE51F0709F4E2CC4FE056E06CE1AF
:1049600076E0093C1C4509F4C3CC7BCF0F3C3CE509
:10497000130709F4EDCC98F40C3CECE51E0709F4A0
:10498000DDCC08F4D6CC0D3C2CE5120709F4DBCCC9
:1049900061E085E00E3C1C4509F4D7CC62CF063DB2
:1049A0008CE5180738F461E082E1013D1C4508F40C
:1049B000CCCCB4C90D351D4509F4B0C952CF1F93F5
:1049C000CF93DF938091F202807FA9F48091EF0270
:1049D000882389F080912403D091F3026091ED0245
:1049E0007091EE02A091F002B091F102C62FC723A0
:1049F00016E0D81304C0DF91CF911F91089590E085
:104A0000109711F0CF3F19F401968770F2CF189FDD
:104A10009001199F300D1124F901EC50FD4F418197
:104A20004713F2CF40814613EFCF42814111ECCFC3
:104A3000438154814A1B5B0B483C510528F7809108
:104A4000F2028F7080618093F202F901E750FD4F0E
:104A500080818F70806180838DEE92E00E943A1E8B
:104A6000DF91CF911F910C947910AF92BF92CF92AA
:104A7000DF92EF92FF920F931F93CF93DF93CDB707
:104A8000DEB761970FB6F894DEBF0FBECDBF8C01C5
:104A900085E0F801DE011D9601900D928A95E1F7FF
:104AA000F801E2808DEEA82E82E0B82E6091F0022F
:104AB0007091F1026115710509F432C19091ED0216
:104AC0004091EE02892F84238F3F09F429C1208170
:104AD0003181C380D480F090EF02F601E61BF70B22
:104AE000FF2009F4E8C08091F202582F507FE83C83
:104AF000F10508F0ABC0511177C0FE2C431321C063
:104B000092131FC0E1101DC08F7080618093F2026C
:104B1000C5010E943A1E8091F202F80185838F2D13
:104B200061960FB6F894DEBF0FBECDBFDF91CF9177
:104B30001F910F91FF90EF90DF90CF90BF90AF90BB
:104B40000895CD2829F0822F83238F3F09F003C1D8
:104B500080E0F82FF170DF2E80FF3CC080912403AD
:104B60004091F30256E0841315C02D873E878D8552
:104B70009E850E94A312292F22952F702230F0F0DB
:104B8000243018F59F70F1F0F8019581907FD1F4F1
:104B9000D12C1EC090E0589FF001599FF00D1124B8
:104BA000EC50FD4F6181361306C06081261303C0AF
:104BB0006281E6120FC001968770D5CF9F7011F009
:104BC000882331F3805E883018F3C8010E943A1EB2
:104BD000FD2CA5CFEE2009F4A2CF8091F2028160D6
:104BE0008093F202F12C9BCF431306C0921304C0B2
:104BF000F801EE2009F479C0C8010E94AF128823A1
:104C000009F1EE20F9F08091F202803270F02091EB
:104C1000ED023091EE0238872F831986DB86CA8633
:104C20008C87CE0107960E943A1E86E0F801ADEE11
:104C3000B2E001900D928A95E1F70E94DF24FF24F3
:104C4000F3946DCFC8010E943A1EF9CF51110AC0EA
:104C50008DEE92E00E943A1E86E0F50111928A954F
:104C6000E9F7C0CF43130FC092130DC0E1100BC082
:104C7000F8018583C8010E943A1E86E0F501119271
:104C80008A95E9F74CCFC8010E94AF128823D1F270
:104C9000EE20C1F28091F202803238F22091ED02D2
:104CA0003091EE023A8329831B82DD82CC828E838F
:104CB000CE010196B8CFE83CF105F8F6FE2CEE20C7
:104CC00009F243131FC092131DC08091F20280FDB0
:104CD00010C0982F907F69F0F8018583903F31F0E4
:104CE000982F907F905F8F70892B8583C8010E94D9
:104CF0003A1E86E0F801ADEEB2E001900D928A9581
:104D0000E1F70DCFC8010E94AF1281118ECF8091C3
:104D1000F20281608093F202C8010E943A1EFFCE27
:104D2000EE2009F48FCFC8010E94AF12F82E88231D
:104D300009F488CF86E0F801ADEEB2E001900D9263
:104D40008A95E1F78091ED029091EE020E94A31204
:104D50000E94DF24E4CE81E08E25FBCE1F93CF930B
:104D6000DF93CDB7DEB767970FB6F894DEBF0FBEFF
:104D7000CDBF4B8B5C8B6D8B7E8B8F8B61111092BB
:104D800046031A8A198A85E0FE017396DE011D9694
:104D900001900D928A95E1F786E0FE013D96DE01D5
:104DA000179601900D928A95E1F7CE0107960E9421
:104DB0003525882389F016E0809124039091F30231
:104DC000891349C067960FB6F894DEBF0FBECDBFFA
:104DD000DF91CF911F91089586E0FE013796DE01A5
:104DE000119601900D928A95E1F78A859B85892B12
:104DF00011F38F81988589238F3FE9F22091F30287
:104E000030E0C90101968770992740912403481723
:104E1000190671F40E9411191092F30210922403E2
:104E200086E0EDEEF2E0DF011D928A95E9F7C3CF4F
:104E300096E0929FD001939FB00D1124AC50BD4FCE
:104E4000FE01319601900D929A95E1F78093F3025D
:104E50000E947910B0CF819FC00111248C509D4FCA
:104E60000E943525882309F4ADCF8091240390E07A
:104E7000019687709927809324039ECF1F920F92EB
:104E80000FB60F9211242F933F934F935F936F931D
:104E90007F938F939F93AF93BF93CF93DF93EF93C2
:104EA000FF93D091E900DF708091EC00C82FC170B2
:104EB00080FDC0E81092E9008091F000877F809328
:104EC000F00078940E9426191092E9008091F00079
:104ED00088608093F000CD2BCF70C093E900FF91E4
:104EE000EF91DF91CF91BF91AF919F918F917F9182
:104EF0006F915F914F913F912F910F900FBE0F9047
:104F00001F9018951F920F920FB60F9211242F9396
:104F10003F934F935F936F937F938F939F93AF9341
:104F2000BF93EF93FF938091E10082FF09C08091CE
:104F3000E20082FF05C08091E1008B7F8093E10059
:104F40008091DA0080FF24C08091D80080FF20C0CB
:104F50008091DA008E7F8093DA008091D90080FF03
:104F60009DC080E189BD82E189BD09B400FEFDCF0D
:104F700081E08093CC048091A704811109C00E9434
:104F800085030E9450048091E20084608093E200D7
:104F90008091E10080FF17C08091E20080FF13C084
:104FA0008091E2008E7F8093E2008091E200806138
:104FB0008093E2008091D80080628093D80019BC71
:104FC00085E08093CC048091E10084FF2BC0809128
:104FD000E20084FF27C080E189BD82E189BD89B5F7
:104FE000982F917080FFFBCF8091D8008F7D8093A8
:104FF000D8008091E1008F7E8093E1008091E200F3
:105000008F7E8093E2008091E20081608093E200D5
:105010008091CD04882309F447C084E08093CC04B8
:105020008091CC048091E10083FF27C08091E20051
:1050300083FF23C08091E100877F8093E10082E0BD
:105040008093CC041092CD048091E1008E7F8093F8
:10505000E1008091E2008E7F8093E2008091E20087
:1050600080618093E20042E060E080E00E941E04E4
:105070008091F00088608093F000FF91EF91BF91E4
:10508000AF919F918F917F916F915F914F913F91E0
:105090002F910F900FBE0F901F90189519BC109272
:1050A000CC041092A70474CF8091E30087FD93E0B5
:1050B0009093CC04B5CF78941F921FB61F92112401
:1050C0008F939F93AF93BF9380919E0490919F0481
:1050D000A091A004B091A1040196A11DB11D8093DF
:1050E0009E0490939F04A093A004B093A104BF9149
:1050F000AF919F918F911F901FBE1F9018951F9287
:105100001FB61F9211248F939F93AF93BF938091EB
:105110009D04811113C080919E0490919F04A091E1
:10512000A004B091A1044196A11DB11D80939E04DD
:1051300090939F04A093A004B093A104BF91AF915A
:105140009F918F911F901FBE1F901895CDB7DEB70E
:10515000AA970FB6F894DEBF0FBECDBF84B7877F86
:1051600084BF0FB6F894A895809160008861809301
:105170006000109260000FBE80E890E00FB6F894D7
:1051800080936100909361000FBE85B7806885BFF2
:1051900085B7806885BF88E89EE09093AD028093D4
:1051A000AC020E9485030E9450048091E20084605A
:1051B0008093E20078948091CC048823A1F0109130
:1051C000E9001F709091EC00892F817090FD80E8BC
:1051D000182B1092E9008091E80083FD0E942619A7
:1051E0001F701093E90082E084BD93E095BD9AEFB3
:1051F00097BD80936E000E94CF12811102C00E9461
:1052000032120BE411E0D8018D918D018F3F11F026
:105210000E948A0EB1E000351B07A9F700E511E0F6
:10522000F80181918F018F3F11F00E948A0EF1E009
:105230000F351F07A9F78AE0E3E6F3E0DF01282F27
:105240001D922A95E9F7EDE4F3E0DF011D928A95BE
:10525000E9F70E948F1D811102C00E94BF1D82E0EC
:1052600090E00E94AA2E809357030E94E812909328
:10527000A3048093A2040E944A17EFE3FCE931974C
:10528000F1F700C000000E944A178091630380FF7D
:1052900008C06FEF7FEF90E080E00E94EC2E0E944C
:1052A0006A1183E090E00E94AA2E0E940D191092CC
:1052B000E0048FEF9FEF9093FA048093F9049093AA
:1052C000FC048093FB049093FE048093FD04909370
:1052D00000058093FF04909302058093010590934D
:1052E000040580930305909306058093050590932C
:1052F00008058093070510927A0390939403809396
:1053000093039093960380939503909398038093CF
:10531000970390939A038093990390939C038093AF
:105320009B0390939E0380939D039093A00380938F
:105330009F039093A2038093A1030E948F1D81116C
:1053400004C00E94BF1D0E94371746E050E06CE188
:1053500070E08AED94E00E949A2E1092AC03809146
:10536000DA048C7F11F40E9437170E942C1E84E00F
:1053700091E090939A048093990428E1822E912CD5
:1053800030E4532EDD24D394662463948091CC04BE
:1053900093E0F92E00E112E1853009F4F4C10E9496
:1053A0004A17882359F08FB7F89440919E04509182
:1053B0009F046091A0047091A1048FBFA3E6B3E0A5
:1053C000E8E5F3E010E000E0602FED90FD90219122
:1053D00031912E153F0509F401C22E253F25C12C20
:1053E000AA24A394B12CA9014A215B21452B09F4DD
:1053F000EFC1C9A26AA3EA20FB2081E0E114F10415
:1054000009F480E08BA30E9422058160782F9DA380
:105410008CA349A15AA16BA18DA10E94AE26F801CF
:10542000EE0FFF1FE85AFC4F80819181A826B92614
:10543000B182A082EF2871F08FE0809FF001819F00
:10544000F00D1124EA58FE4FEC0DF11D80818F3FC5
:1054500009F0A5C1C12C0C2D10E080917A03800FBA
:10546000912F911D09976CF188E090E07C01E01A82
:10547000F10AB80165587C4FA7018BE793E00E94C1
:10548000912EB8016D577C4FA70183E893E00E94ED
:10549000912EA701440F551FB801660F771F6D5657
:1054A0007C4F83E993E00E94912EB80165577C4FB1
:1054B000A7018BE893E00E94912E88E08C198093DD
:1054C0007A0380917A0390E0A72DB0E09D01220F2E
:1054D000331F2F533E4FAA0FBB1FBD016E537E4F8C
:1054E00041E0480F9C1508F45EC180937A030E9446
:1054F000411686E0E4E7F3E0DE01119601900D929B
:105500008A95E1F7F0907603E090770310917803A5
:10551000009179031092760310927703109278032A
:10552000109279038F2D8E2909F448C0809172035F
:10553000909173030E9413059C0190916E0399232F
:1055400009F44CC325313105C8F19F3F19F09F5F25
:1055500090936E03FF2059F00E940E0E9FEF1F14D0
:105560000CF491E0899F802D112480937603EE2026
:1055700059F00E940E0E9FEF1E140CF491E0899FCB
:10558000802D112480937703309176033323B1F07B
:1055900020917703222391F045EB3403C0011124BD
:1055A000992309F432C19093760345EB24039001CB
:1055B0001124332309F42CC130937703812F802BDE
:1055C00009F448C080917003909171030E94130503
:1055D0009C0190916D03992309F4FBC2213531059B
:1055E000C8F19F3F19F09F5F90936D03112359F00D
:1055F0000E94EC0D9FEF11160CF491E0899F802D15
:10560000112480937803002359F00E94EC0D9FEF42
:1056100010160CF491E0899F802D1124809379035A
:10562000309178033323B1F020917903222391F054
:1056300045EB3403C0011124992309F4ECC0909385
:10564000780345EB240390011124332309F4E6C0C9
:10565000309379038091760390917703892B909111
:105660007803892B90917903892B11F00E944C0DBE
:1056700086E0FE013196A4E7B3E001900D928A9591
:10568000E1F70E94B9059091620389138093620348
:105690008091CC04843009F079CE83E08093E900D6
:1056A0008091E80082FF72CE8091E80090E085FF53
:1056B0000CC00E94A40330E2E32EF12C8E010F5F98
:1056C0001F4F882309F4B7C091E08091E8008B77E1
:1056D0008093E800992309F459CEE981E150E33140
:1056E00008F038C1F0E0EB56F04D0C941B2E809181
:1056F000CC04843009F436C00E9441168091AB037B
:1057000081110DC00E946313109211018091DA047F
:105710008370809310010E948E11F09212016092AA
:10572000AB0310929D040FB6F894A8958092600088
:105730000FBE5092600083B7817F846083BF83B7C0
:10574000816083BF7894889583B78E7F83BF0FB6BF
:10575000F894A89580916000886180936000109211
:1057600060000FBE8091CB04882369F00E944A1725
:10577000E3E6F3E081919191892B09F00BC223E0DC
:10578000ED36F207B9F78091CC04853009F4AFCF3C
:105790000E9411190E94B9051092AB0300CE782E19
:1057A000CC24C39458CE90E0FC01E658FC4FD901BC
:1057B0005C915183DB015C915187718A880F991F3D
:1057C000FC01E658FC4F128E118E91E0842F88CE9A
:1057D000C394AA0CBB1C4FE0C41205CE0F5F1F4F31
:1057E0000530110509F0F0CD8FEF8EA38FA318A619
:1057F0000E9422058160782F9AA789A74EA15FA1F8
:1058000068A58AA50E94AE2672CED0927603CDCE30
:10581000D0927703D3CED092780313CFD09279036E
:1058200019CF8091F100D8018D938D01B1E0EB1A71
:10583000F10809F449CF8091E80085FDF2CF80910D
:10584000E8008B778093E8000E94A403882399F3F3
:105850003BCF1A8289E08B831AC08A81823009F497
:10586000AFC18330D9F1813009F074C02FB7F894FB
:1058700060919E0470919F048091A0049091A10476
:105880002FBF0E94212E6B837C838D839E8380910A
:10589000CC04843009F07ACD1091E9001F7090910A
:1058A000EC00892F817090FD80E8182B82E08093B6
:1058B000E9008091E80080FF0DC050E040E060E228
:1058C00070E0CE0101960E94D5038091E8008E77AA
:1058D0008093E8001F701093E90058CD8091630316
:1058E000909164039827892798279C838B838091C4
:1058F0006503909166039827892798279E838D8357
:105900008091670390916803982789279827988743
:105910008F838091690390916A039827892798273C
:105920009A87898780916B0390916C0398278927C8
:1059300098279C878B87ABCF8A81823059F46B8103
:105940007C818D819E810E94212E86E290E00E94C2
:10595000CE2E9DCF8FEF89839ACF4C816B818A8128
:105960000E9441129827892798279E838D838FCF85
:105970000D811E811027012710278A81EB80EEE11F
:10598000EE9E70011124F6E98F9FE00CF11C1124AA
:105990008C8190E0880F991FE80EF91E612FC701D6
:1059A00087960E94CE2E602FC7018896D0CF0E9486
:1059B000C5116DCF8A818138C9F068F4803809F04B
:1059C00066CF8091DB0420E04B816091DC0490E0A5
:1059D0000E94FC055CCF8238F9F0833809F057CF7C
:1059E0008B8120E04091DD046C81F1CF60E08B8100
:1059F0000E9457068B8181110CC08091DA0483705C
:105A000011F0109212018091DA048C7F8093DA04F5
:105A10003ECF0E9485063BCF8B818093DE0437CF3B
:105A20008A81813899F030F4803809F030CF809144
:105A3000DD0411CF823879F0833809F028CF8091C6
:105A4000DB048B838091DC048C8321CF8091DA048A
:105A50008695869500CF8091DE04FDCE0E94361695
:105A600016CF80E18A8313CFDA8281E8F4CE0A81EF
:105A70001B81102701271027CE0101967C01AC80E5
:105A8000DC01AA0DB11D5D01C80181589D4FAE1406
:105A9000BF0409F4FCCE0138B1E01B0750F40E94AA
:105AA000AA2EF70184830F5F1F4FBFEFEB1AFB0A8B
:105AB000EBCFD70114961C92F6CF0A811B811027D9
:105AC00001271027FE0131965F01EC80E00EF12ED8
:105AD000F11CC80181589D4F0E151F0509F4D7CE42
